{
  "contractName": "Farmer",
  "abi": [
    {
      "inputs": [],
      "stateMutability": "nonpayable",
      "type": "constructor"
    },
    {
      "inputs": [
        {
          "internalType": "address",
          "name": "",
          "type": "address"
        },
        {
          "internalType": "uint256",
          "name": "",
          "type": "uint256"
        }
      ],
      "name": "_farmerRawProducts",
      "outputs": [
        {
          "internalType": "string",
          "name": "",
          "type": "string"
        }
      ],
      "stateMutability": "view",
      "type": "function",
      "constant": true
    },
    {
      "inputs": [
        {
          "internalType": "string",
          "name": "",
          "type": "string"
        },
        {
          "internalType": "uint256",
          "name": "",
          "type": "uint256"
        }
      ],
      "name": "_rawProductFarmers",
      "outputs": [
        {
          "internalType": "address",
          "name": "",
          "type": "address"
        }
      ],
      "stateMutability": "view",
      "type": "function",
      "constant": true
    },
    {
      "inputs": [],
      "name": "admin",
      "outputs": [
        {
          "internalType": "address",
          "name": "",
          "type": "address"
        }
      ],
      "stateMutability": "view",
      "type": "function",
      "constant": true
    },
    {
      "inputs": [
        {
          "internalType": "address",
          "name": "_id",
          "type": "address"
        }
      ],
      "name": "get",
      "outputs": [
        {
          "components": [
            {
              "internalType": "address",
              "name": "id",
              "type": "address"
            },
            {
              "internalType": "string",
              "name": "name",
              "type": "string"
            },
            {
              "internalType": "string",
              "name": "registration",
              "type": "string"
            },
            {
              "internalType": "string",
              "name": "contact",
              "type": "string"
            },
            {
              "internalType": "string",
              "name": "email",
              "type": "string"
            },
            {
              "internalType": "string",
              "name": "certification",
              "type": "string"
            },
            {
              "internalType": "string",
              "name": "location",
              "type": "string"
            },
            {
              "internalType": "string",
              "name": "role",
              "type": "string"
            },
            {
              "internalType": "string",
              "name": "managerName",
              "type": "string"
            },
            {
              "internalType": "string",
              "name": "managerContact",
              "type": "string"
            },
            {
              "internalType": "bool",
              "name": "isVerified",
              "type": "bool"
            },
            {
              "internalType": "bool",
              "name": "isRejected",
              "type": "bool"
            }
          ],
          "internalType": "struct Stakeholder.stakeholder",
          "name": "",
          "type": "tuple"
        }
      ],
      "stateMutability": "view",
      "type": "function",
      "constant": true
    },
    {
      "inputs": [],
      "name": "getAddresses",
      "outputs": [
        {
          "internalType": "address[]",
          "name": "",
          "type": "address[]"
        }
      ],
      "stateMutability": "view",
      "type": "function",
      "constant": true
    },
    {
      "inputs": [
        {
          "internalType": "address",
          "name": "_id",
          "type": "address"
        }
      ],
      "name": "getRole",
      "outputs": [
        {
          "internalType": "string",
          "name": "",
          "type": "string"
        }
      ],
      "stateMutability": "view",
      "type": "function",
      "constant": true
    },
    {
      "inputs": [
        {
          "internalType": "address",
          "name": "_account",
          "type": "address"
        }
      ],
      "name": "isAdmin",
      "outputs": [
        {
          "internalType": "bool",
          "name": "",
          "type": "bool"
        }
      ],
      "stateMutability": "view",
      "type": "function",
      "constant": true
    },
    {
      "inputs": [
        {
          "internalType": "address",
          "name": "_owner",
          "type": "address"
        },
        {
          "internalType": "address",
          "name": "_operator",
          "type": "address"
        }
      ],
      "name": "isApprovedForAll",
      "outputs": [
        {
          "internalType": "bool",
          "name": "",
          "type": "bool"
        }
      ],
      "stateMutability": "view",
      "type": "function",
      "constant": true
    },
    {
      "inputs": [
        {
          "internalType": "address",
          "name": "_id",
          "type": "address"
        }
      ],
      "name": "isVerified",
      "outputs": [
        {
          "internalType": "bool",
          "name": "",
          "type": "bool"
        }
      ],
      "stateMutability": "view",
      "type": "function",
      "constant": true
    },
    {
      "inputs": [
        {
          "internalType": "string",
          "name": "_name",
          "type": "string"
        },
        {
          "internalType": "string",
          "name": "_registration",
          "type": "string"
        },
        {
          "internalType": "string",
          "name": "_contact",
          "type": "string"
        },
        {
          "internalType": "string",
          "name": "_email",
          "type": "string"
        },
        {
          "internalType": "string",
          "name": "_certification",
          "type": "string"
        },
        {
          "internalType": "string",
          "name": "_location",
          "type": "string"
        },
        {
          "internalType": "string",
          "name": "_role",
          "type": "string"
        },
        {
          "internalType": "string",
          "name": "_managerName",
          "type": "string"
        },
        {
          "internalType": "string",
          "name": "_managerContact",
          "type": "string"
        }
      ],
      "name": "register",
      "outputs": [
        {
          "internalType": "bool",
          "name": "",
          "type": "bool"
        }
      ],
      "stateMutability": "nonpayable",
      "type": "function"
    },
    {
      "inputs": [
        {
          "internalType": "address",
          "name": "_id",
          "type": "address"
        }
      ],
      "name": "reject",
      "outputs": [
        {
          "internalType": "bool",
          "name": "",
          "type": "bool"
        }
      ],
      "stateMutability": "nonpayable",
      "type": "function"
    },
    {
      "inputs": [
        {
          "internalType": "address",
          "name": "_operator",
          "type": "address"
        },
        {
          "internalType": "bool",
          "name": "_approved",
          "type": "bool"
        }
      ],
      "name": "setApprovalForAll",
      "outputs": [
        {
          "internalType": "bool",
          "name": "",
          "type": "bool"
        }
      ],
      "stateMutability": "nonpayable",
      "type": "function"
    },
    {
      "inputs": [
        {
          "internalType": "address",
          "name": "_from",
          "type": "address"
        },
        {
          "internalType": "address",
          "name": "_to",
          "type": "address"
        },
        {
          "internalType": "uint256",
          "name": "_productId",
          "type": "uint256"
        }
      ],
      "name": "transferFrom",
      "outputs": [
        {
          "internalType": "bool",
          "name": "",
          "type": "bool"
        }
      ],
      "stateMutability": "nonpayable",
      "type": "function"
    },
    {
      "inputs": [
        {
          "internalType": "address",
          "name": "_id",
          "type": "address"
        }
      ],
      "name": "verify",
      "outputs": [
        {
          "internalType": "bool",
          "name": "",
          "type": "bool"
        }
      ],
      "stateMutability": "nonpayable",
      "type": "function"
    },
    {
      "inputs": [
        {
          "internalType": "string",
          "name": "_name",
          "type": "string"
        },
        {
          "internalType": "string",
          "name": "_registration",
          "type": "string"
        },
        {
          "internalType": "string",
          "name": "_contact",
          "type": "string"
        },
        {
          "internalType": "string",
          "name": "_email",
          "type": "string"
        },
        {
          "internalType": "string",
          "name": "_certification",
          "type": "string"
        },
        {
          "internalType": "string",
          "name": "_location",
          "type": "string"
        },
        {
          "internalType": "string",
          "name": "_role",
          "type": "string"
        },
        {
          "internalType": "string",
          "name": "_managerName",
          "type": "string"
        },
        {
          "internalType": "string",
          "name": "_managerContact",
          "type": "string"
        },
        {
          "internalType": "string[]",
          "name": "_rawProducts",
          "type": "string[]"
        }
      ],
      "name": "registerFarmer",
      "outputs": [
        {
          "internalType": "bool",
          "name": "",
          "type": "bool"
        }
      ],
      "stateMutability": "nonpayable",
      "type": "function"
    },
    {
      "inputs": [
        {
          "internalType": "string",
          "name": "_rawProduct",
          "type": "string"
        }
      ],
      "name": "addRawProduct",
      "outputs": [
        {
          "internalType": "bool",
          "name": "",
          "type": "bool"
        }
      ],
      "stateMutability": "nonpayable",
      "type": "function"
    },
    {
      "inputs": [
        {
          "internalType": "address",
          "name": "_id",
          "type": "address"
        }
      ],
      "name": "getFarmer",
      "outputs": [
        {
          "components": [
            {
              "internalType": "address",
              "name": "id",
              "type": "address"
            },
            {
              "internalType": "string",
              "name": "name",
              "type": "string"
            },
            {
              "internalType": "string",
              "name": "registration",
              "type": "string"
            },
            {
              "internalType": "string",
              "name": "contact",
              "type": "string"
            },
            {
              "internalType": "string",
              "name": "email",
              "type": "string"
            },
            {
              "internalType": "string",
              "name": "certification",
              "type": "string"
            },
            {
              "internalType": "string",
              "name": "location",
              "type": "string"
            },
            {
              "internalType": "string",
              "name": "role",
              "type": "string"
            },
            {
              "internalType": "string",
              "name": "managerName",
              "type": "string"
            },
            {
              "internalType": "string",
              "name": "managerContact",
              "type": "string"
            },
            {
              "internalType": "bool",
              "name": "isVerified",
              "type": "bool"
            },
            {
              "internalType": "bool",
              "name": "isRejected",
              "type": "bool"
            }
          ],
          "internalType": "struct Stakeholder.stakeholder",
          "name": "farmer",
          "type": "tuple"
        },
        {
          "internalType": "string[]",
          "name": "rawProducts",
          "type": "string[]"
        }
      ],
      "stateMutability": "view",
      "type": "function",
      "constant": true
    },
    {
      "inputs": [],
      "name": "getFarmers",
      "outputs": [
        {
          "internalType": "address[]",
          "name": "verified",
          "type": "address[]"
        },
        {
          "internalType": "address[]",
          "name": "requested",
          "type": "address[]"
        }
      ],
      "stateMutability": "view",
      "type": "function",
      "constant": true
    },
    {
      "inputs": [
        {
          "internalType": "string",
          "name": "_rawProduct",
          "type": "string"
        }
      ],
      "name": "getRawProductFarmers",
      "outputs": [
        {
          "internalType": "address[]",
          "name": "",
          "type": "address[]"
        }
      ],
      "stateMutability": "view",
      "type": "function",
      "constant": true
    }
  ],
  "bytecode": "0x608060405234801561001057600080fd5b5033806000806101000a81548173ffffffffffffffffffffffffffffffffffffffff021916908373ffffffffffffffffffffffffffffffffffffffff16021790555050613ddb806100626000396000f3fe608060405234801561001057600080fd5b50600436106101215760003560e01c8063a22cb465116100ad578063c2bc2efc11610071578063c2bc2efc146103a3578063e7609c16146103d3578063e985e9c514610404578063ebcb727d14610434578063f851a4401461046457610121565b8063a22cb465146102c5578063a39fac12146102f5578063ab0da5a914610313578063af8f44cc14610343578063b9209e331461037357610121565b80635d6396bf116100f45780635d6396bf146101e657806363a9c3d714610216578063789f8d40146102465780638531358f14610265578063880f8fd71461029557610121565b806323b872dd1461012657806324d7806c146101565780634427673314610186578063518cc0b3146101b6575b600080fd5b610140600480360381019061013b9190612bff565b610482565b60405161014d91906138bb565b60405180910390f35b610170600480360381019061016b9190612b9a565b610735565b60405161017d91906138bb565b60405180910390f35b6101a0600480360381019061019b9190612b9a565b61078e565b6040516101ad91906138d6565b60405180910390f35b6101d060048036038101906101cb9190612c8a565b610862565b6040516101dd91906138d6565b60405180910390f35b61020060048036038101906101fb9190612d07565b61091b565b60405161020d91906138bb565b60405180910390f35b610230600480360381019061022b9190612b9a565b610ca1565b60405161023d91906138bb565b60405180910390f35b61024e610d5f565b60405161025c929190613884565b60405180910390f35b61027f600480360381019061027a9190613070565b6111fc565b60405161028c9190613847565b60405180910390f35b6102af60048036038101906102aa9190612cc6565b611260565b6040516102bc91906138bb565b60405180910390f35b6102df60048036038101906102da9190612c4e565b6114e4565b6040516102ec91906138bb565b60405180910390f35b6102fd611663565b60405161030a9190613862565b60405180910390f35b61032d60048036038101906103289190612b9a565b6116f1565b60405161033a91906138bb565b60405180910390f35b61035d60048036038101906103589190612cc6565b61180a565b60405161036a9190613862565b60405180910390f35b61038d60048036038101906103889190612b9a565b6118b6565b60405161039a91906138bb565b60405180910390f35b6103bd60048036038101906103b89190612b9a565b61190f565b6040516103ca9190613a18565b60405180910390f35b6103ed60048036038101906103e89190612b9a565b612082565b6040516103fb929190613a3a565b60405180910390f35b61041e60048036038101906104199190612bc3565b612318565b60405161042b91906138bb565b60405180910390f35b61044e60048036038101906104499190612ea5565b6123ac565b60405161045b91906138bb565b60405180910390f35b61046c612866565b6040516104799190613847565b60405180910390f35b600083826000600260008473ffffffffffffffffffffffffffffffffffffffff1673ffffffffffffffffffffffffffffffffffffffff168152602001908152602001600020600083815260200190815260200160002060009054906101000a900460ff16905060006104f48433612318565b8061052a57508373ffffffffffffffffffffffffffffffffffffffff163373ffffffffffffffffffffffffffffffffffffffff16145b90508180156105365750805b610575576040517f08c379a000000000000000000000000000000000000000000000000000000000815260040161056c906139d8565b60405180910390fd5b8673ffffffffffffffffffffffffffffffffffffffff168873ffffffffffffffffffffffffffffffffffffffff1614156105e4576040517f08c379a00000000000000000000000000000000000000000000000000000000081526004016105db90613998565b60405180910390fd5b600073ffffffffffffffffffffffffffffffffffffffff168773ffffffffffffffffffffffffffffffffffffffff161415610654576040517f08c379a000000000000000000000000000000000000000000000000000000000815260040161064b90613938565b60405180910390fd5b6000600260008a73ffffffffffffffffffffffffffffffffffffffff1673ffffffffffffffffffffffffffffffffffffffff168152602001908152602001600020600088815260200190815260200160002060006101000a81548160ff0219169083151502179055506001600260008973ffffffffffffffffffffffffffffffffffffffff1673ffffffffffffffffffffffffffffffffffffffff168152602001908152602001600020600088815260200190815260200160002060006101000a81548160ff02191690831515021790555060019450505050509392505050565b60008060009054906101000a900473ffffffffffffffffffffffffffffffffffffffff1673ffffffffffffffffffffffffffffffffffffffff168273ffffffffffffffffffffffffffffffffffffffff16149050919050565b6060600160008373ffffffffffffffffffffffffffffffffffffffff1673ffffffffffffffffffffffffffffffffffffffff16815260200190815260200160002060070180546107dd90613c47565b80601f016020809104026020016040519081016040528092919081815260200182805461080990613c47565b80156108565780601f1061082b57610100808354040283529160200191610856565b820191906000526020600020905b81548152906001019060200180831161083957829003601f168201915b50505050509050919050565b6005602052816000526040600020818154811061087e57600080fd5b9060005260206000200160009150915050805461089a90613c47565b80601f01602080910402602001604051908101604052809291908181526020018280546108c690613c47565b80156109135780601f106108e857610100808354040283529160200191610913565b820191906000526020600020905b8154815290600101906020018083116108f657829003601f168201915b505050505081565b60008073ffffffffffffffffffffffffffffffffffffffff16600160003373ffffffffffffffffffffffffffffffffffffffff1673ffffffffffffffffffffffffffffffffffffffff16815260200190815260200160002060000160009054906101000a900473ffffffffffffffffffffffffffffffffffffffff1673ffffffffffffffffffffffffffffffffffffffff16146109ed576040517f08c379a00000000000000000000000000000000000000000000000000000000081526004016109e4906139b8565b60405180910390fd5b6040518061018001604052803373ffffffffffffffffffffffffffffffffffffffff1681526020018b81526020018a815260200189815260200188815260200187815260200186815260200185815260200184815260200183815260200160001515815260200160001515815250600160003373ffffffffffffffffffffffffffffffffffffffff1673ffffffffffffffffffffffffffffffffffffffff16815260200190815260200160002060008201518160000160006101000a81548173ffffffffffffffffffffffffffffffffffffffff021916908373ffffffffffffffffffffffffffffffffffffffff1602179055506020820151816001019080519060200190610afd92919061288a565b506040820151816002019080519060200190610b1a92919061288a565b506060820151816003019080519060200190610b3792919061288a565b506080820151816004019080519060200190610b5492919061288a565b5060a0820151816005019080519060200190610b7192919061288a565b5060c0820151816006019080519060200190610b8e92919061288a565b5060e0820151816007019080519060200190610bab92919061288a565b50610100820151816008019080519060200190610bc992919061288a565b50610120820151816009019080519060200190610be792919061288a565b5061014082015181600a0160006101000a81548160ff02191690831515021790555061016082015181600a0160016101000a81548160ff0219169083151502179055509050506004339080600181540180825580915050600190039060005260206000200160009091909190916101000a81548173ffffffffffffffffffffffffffffffffffffffff021916908373ffffffffffffffffffffffffffffffffffffffff160217905550600190509998505050505050505050565b60008060009054906101000a900473ffffffffffffffffffffffffffffffffffffffff1673ffffffffffffffffffffffffffffffffffffffff163373ffffffffffffffffffffffffffffffffffffffff1614610cfc57600080fd5b60018060008473ffffffffffffffffffffffffffffffffffffffff1673ffffffffffffffffffffffffffffffffffffffff168152602001908152602001600020600a0160006101000a81548160ff02191690831515021790555060019050919050565b60608060008060005b600480549050811015610e63576001600060048381548110610db3577f4e487b7100000000000000000000000000000000000000000000000000000000600052603260045260246000fd5b9060005260206000200160009054906101000a900473ffffffffffffffffffffffffffffffffffffffff1673ffffffffffffffffffffffffffffffffffffffff1673ffffffffffffffffffffffffffffffffffffffff168152602001908152602001600020600a0160009054906101000a900460ff1615610e41578280610e3990613c79565b935050610e50565b8180610e4c90613c79565b9250505b8080610e5b90613c79565b915050610d68565b508167ffffffffffffffff811115610ea4577f4e487b7100000000000000000000000000000000000000000000000000000000600052604160045260246000fd5b604051908082528060200260200182016040528015610ed25781602001602082028036833780820191505090505b5093508067ffffffffffffffff811115610f15577f4e487b7100000000000000000000000000000000000000000000000000000000600052604160045260246000fd5b604051908082528060200260200182016040528015610f435781602001602082028036833780820191505090505b50925060008060005b6004805490508110156111f3576001600060048381548110610f97577f4e487b7100000000000000000000000000000000000000000000000000000000600052603260045260246000fd5b9060005260206000200160009054906101000a900473ffffffffffffffffffffffffffffffffffffffff1673ffffffffffffffffffffffffffffffffffffffff1673ffffffffffffffffffffffffffffffffffffffff168152602001908152602001600020600a0160009054906101000a900460ff16156110fb576004818154811061104c577f4e487b7100000000000000000000000000000000000000000000000000000000600052603260045260246000fd5b9060005260206000200160009054906101000a900473ffffffffffffffffffffffffffffffffffffffff1687848061108390613c79565b9550815181106110bc577f4e487b7100000000000000000000000000000000000000000000000000000000600052603260045260246000fd5b602002602001019073ffffffffffffffffffffffffffffffffffffffff16908173ffffffffffffffffffffffffffffffffffffffff16815250506111e0565b60048181548110611135577f4e487b7100000000000000000000000000000000000000000000000000000000600052603260045260246000fd5b9060005260206000200160009054906101000a900473ffffffffffffffffffffffffffffffffffffffff1686838061116c90613c79565b9450815181106111a5577f4e487b7100000000000000000000000000000000000000000000000000000000600052603260045260246000fd5b602002602001019073ffffffffffffffffffffffffffffffffffffffff16908173ffffffffffffffffffffffffffffffffffffffff16815250505b80806111eb90613c79565b915050610f4c565b50505050509091565b600682805160208101820180518482526020830160208501208183528095505050505050818154811061122e57600080fd5b906000526020600020016000915091509054906101000a900473ffffffffffffffffffffffffffffffffffffffff1681565b6000806000905060005b600560003373ffffffffffffffffffffffffffffffffffffffff1673ffffffffffffffffffffffffffffffffffffffff168152602001908152602001600020805490508110156113a057836040516020016112c59190613819565b60405160208183030381529060405280519060200120600560003373ffffffffffffffffffffffffffffffffffffffff1673ffffffffffffffffffffffffffffffffffffffff1681526020019081526020016000208281548110611352577f4e487b7100000000000000000000000000000000000000000000000000000000600052603260045260246000fd5b9060005260206000200160405160200161136c9190613830565b60405160208183030381529060405280519060200120141561138d57600191505b808061139890613c79565b91505061126a565b5080156113e2576040517f08c379a00000000000000000000000000000000000000000000000000000000081526004016113d990613918565b60405180910390fd5b600560003373ffffffffffffffffffffffffffffffffffffffff1673ffffffffffffffffffffffffffffffffffffffff1681526020019081526020016000208390806001815401808255809150506001900390600052602060002001600090919091909150908051906020019061145a92919061288a565b5060068360405161146b9190613819565b9081526020016040518091039020339080600181540180825580915050600190039060005260206000200160009091909190916101000a81548173ffffffffffffffffffffffffffffffffffffffff021916908373ffffffffffffffffffffffffffffffffffffffff1602179055506001915050919050565b60008273ffffffffffffffffffffffffffffffffffffffff163373ffffffffffffffffffffffffffffffffffffffff161415611555576040517f08c379a000000000000000000000000000000000000000000000000000000000815260040161154c906138f8565b60405180910390fd5b600073ffffffffffffffffffffffffffffffffffffffff168373ffffffffffffffffffffffffffffffffffffffff1614156115c5576040517f08c379a00000000000000000000000000000000000000000000000000000000081526004016115bc906139f8565b60405180910390fd5b81600360003373ffffffffffffffffffffffffffffffffffffffff1673ffffffffffffffffffffffffffffffffffffffff16815260200190815260200160002060008573ffffffffffffffffffffffffffffffffffffffff1673ffffffffffffffffffffffffffffffffffffffff16815260200190815260200160002060006101000a81548160ff0219169083151502179055506001905092915050565b606060048054806020026020016040519081016040528092919081815260200182805480156116e757602002820191906000526020600020905b8160009054906101000a900473ffffffffffffffffffffffffffffffffffffffff1673ffffffffffffffffffffffffffffffffffffffff168152602001906001019080831161169d575b5050505050905090565b60008060009054906101000a900473ffffffffffffffffffffffffffffffffffffffff1673ffffffffffffffffffffffffffffffffffffffff163373ffffffffffffffffffffffffffffffffffffffff161461174c57600080fd5b6000600160008473ffffffffffffffffffffffffffffffffffffffff1673ffffffffffffffffffffffffffffffffffffffff168152602001908152602001600020600a0160006101000a81548160ff02191690831515021790555060018060008473ffffffffffffffffffffffffffffffffffffffff1673ffffffffffffffffffffffffffffffffffffffff168152602001908152602001600020600a0160016101000a81548160ff02191690831515021790555060019050919050565b606060068260405161181c9190613819565b90815260200160405180910390208054806020026020016040519081016040528092919081815260200182805480156118aa57602002820191906000526020600020905b8160009054906101000a900473ffffffffffffffffffffffffffffffffffffffff1673ffffffffffffffffffffffffffffffffffffffff1681526020019060010190808311611860575b50505050509050919050565b6000600160008373ffffffffffffffffffffffffffffffffffffffff1673ffffffffffffffffffffffffffffffffffffffff168152602001908152602001600020600a0160009054906101000a900460ff169050919050565b611917612910565b81600160003373ffffffffffffffffffffffffffffffffffffffff1673ffffffffffffffffffffffffffffffffffffffff16815260200190815260200160002060000160009054906101000a900473ffffffffffffffffffffffffffffffffffffffff1673ffffffffffffffffffffffffffffffffffffffff168173ffffffffffffffffffffffffffffffffffffffff161480611a425750600073ffffffffffffffffffffffffffffffffffffffff16600160003373ffffffffffffffffffffffffffffffffffffffff1673ffffffffffffffffffffffffffffffffffffffff16815260200190815260200160002060000160009054906101000a900473ffffffffffffffffffffffffffffffffffffffff1673ffffffffffffffffffffffffffffffffffffffff16145b611a81576040517f08c379a0000000000000000000000000000000000000000000000000000000008152600401611a7890613958565b60405180910390fd5b600160008473ffffffffffffffffffffffffffffffffffffffff1673ffffffffffffffffffffffffffffffffffffffff168152602001908152602001600020604051806101800160405290816000820160009054906101000a900473ffffffffffffffffffffffffffffffffffffffff1673ffffffffffffffffffffffffffffffffffffffff1673ffffffffffffffffffffffffffffffffffffffff168152602001600182018054611b3290613c47565b80601f0160208091040260200160405190810160405280929190818152602001828054611b5e90613c47565b8015611bab5780601f10611b8057610100808354040283529160200191611bab565b820191906000526020600020905b815481529060010190602001808311611b8e57829003601f168201915b50505050508152602001600282018054611bc490613c47565b80601f0160208091040260200160405190810160405280929190818152602001828054611bf090613c47565b8015611c3d5780601f10611c1257610100808354040283529160200191611c3d565b820191906000526020600020905b815481529060010190602001808311611c2057829003601f168201915b50505050508152602001600382018054611c5690613c47565b80601f0160208091040260200160405190810160405280929190818152602001828054611c8290613c47565b8015611ccf5780601f10611ca457610100808354040283529160200191611ccf565b820191906000526020600020905b815481529060010190602001808311611cb257829003601f168201915b50505050508152602001600482018054611ce890613c47565b80601f0160208091040260200160405190810160405280929190818152602001828054611d1490613c47565b8015611d615780601f10611d3657610100808354040283529160200191611d61565b820191906000526020600020905b815481529060010190602001808311611d4457829003601f168201915b50505050508152602001600582018054611d7a90613c47565b80601f0160208091040260200160405190810160405280929190818152602001828054611da690613c47565b8015611df35780601f10611dc857610100808354040283529160200191611df3565b820191906000526020600020905b815481529060010190602001808311611dd657829003601f168201915b50505050508152602001600682018054611e0c90613c47565b80601f0160208091040260200160405190810160405280929190818152602001828054611e3890613c47565b8015611e855780601f10611e5a57610100808354040283529160200191611e85565b820191906000526020600020905b815481529060010190602001808311611e6857829003601f168201915b50505050508152602001600782018054611e9e90613c47565b80601f0160208091040260200160405190810160405280929190818152602001828054611eca90613c47565b8015611f175780601f10611eec57610100808354040283529160200191611f17565b820191906000526020600020905b815481529060010190602001808311611efa57829003601f168201915b50505050508152602001600882018054611f3090613c47565b80601f0160208091040260200160405190810160405280929190818152602001828054611f5c90613c47565b8015611fa95780601f10611f7e57610100808354040283529160200191611fa9565b820191906000526020600020905b815481529060010190602001808311611f8c57829003601f168201915b50505050508152602001600982018054611fc290613c47565b80601f0160208091040260200160405190810160405280929190818152602001828054611fee90613c47565b801561203b5780601f106120105761010080835404028352916020019161203b565b820191906000526020600020905b81548152906001019060200180831161201e57829003601f168201915b50505050508152602001600a820160009054906101000a900460ff16151515158152602001600a820160019054906101000a900460ff161515151581525050915050919050565b61208a612910565b606082600160003373ffffffffffffffffffffffffffffffffffffffff1673ffffffffffffffffffffffffffffffffffffffff16815260200190815260200160002060000160009054906101000a900473ffffffffffffffffffffffffffffffffffffffff1673ffffffffffffffffffffffffffffffffffffffff168173ffffffffffffffffffffffffffffffffffffffff1614806121b75750600073ffffffffffffffffffffffffffffffffffffffff16600160003373ffffffffffffffffffffffffffffffffffffffff1673ffffffffffffffffffffffffffffffffffffffff16815260200190815260200160002060000160009054906101000a900473ffffffffffffffffffffffffffffffffffffffff1673ffffffffffffffffffffffffffffffffffffffff16145b6121f6576040517f08c379a00000000000000000000000000000000000000000000000000000000081526004016121ed90613958565b60405180910390fd5b6121ff8461190f565b9250600560008573ffffffffffffffffffffffffffffffffffffffff1673ffffffffffffffffffffffffffffffffffffffff168152602001908152602001600020805480602002602001604051908101604052809291908181526020016000905b8282101561230c57838290600052602060002001805461227f90613c47565b80601f01602080910402602001604051908101604052809291908181526020018280546122ab90613c47565b80156122f85780601f106122cd576101008083540402835291602001916122f8565b820191906000526020600020905b8154815290600101906020018083116122db57829003601f168201915b505050505081526020019060010190612260565b50505050915050915091565b6000600360008473ffffffffffffffffffffffffffffffffffffffff1673ffffffffffffffffffffffffffffffffffffffff16815260200190815260200160002060008373ffffffffffffffffffffffffffffffffffffffff1673ffffffffffffffffffffffffffffffffffffffff16815260200190815260200160002060009054906101000a900460ff16905092915050565b60008073ffffffffffffffffffffffffffffffffffffffff16600160003373ffffffffffffffffffffffffffffffffffffffff1673ffffffffffffffffffffffffffffffffffffffff16815260200190815260200160002060000160009054906101000a900473ffffffffffffffffffffffffffffffffffffffff1673ffffffffffffffffffffffffffffffffffffffff161461247e576040517f08c379a000000000000000000000000000000000000000000000000000000000815260040161247590613978565b60405180910390fd5b6040518061018001604052803373ffffffffffffffffffffffffffffffffffffffff1681526020018c81526020018b81526020018a815260200189815260200188815260200187815260200186815260200185815260200184815260200160001515815260200160001515815250600160003373ffffffffffffffffffffffffffffffffffffffff1673ffffffffffffffffffffffffffffffffffffffff16815260200190815260200160002060008201518160000160006101000a81548173ffffffffffffffffffffffffffffffffffffffff021916908373ffffffffffffffffffffffffffffffffffffffff160217905550602082015181600101908051906020019061258e92919061288a565b5060408201518160020190805190602001906125ab92919061288a565b5060608201518160030190805190602001906125c892919061288a565b5060808201518160040190805190602001906125e592919061288a565b5060a082015181600501908051906020019061260292919061288a565b5060c082015181600601908051906020019061261f92919061288a565b5060e082015181600701908051906020019061263c92919061288a565b5061010082015181600801908051906020019061265a92919061288a565b5061012082015181600901908051906020019061267892919061288a565b5061014082015181600a0160006101000a81548160ff02191690831515021790555061016082015181600a0160016101000a81548160ff02191690831515021790555090505081600560003373ffffffffffffffffffffffffffffffffffffffff1673ffffffffffffffffffffffffffffffffffffffff168152602001908152602001600020908051906020019061271192919061298b565b5060005b82518110156127f0576006838281518110612759577f4e487b7100000000000000000000000000000000000000000000000000000000600052603260045260246000fd5b602002602001015160405161276e9190613819565b9081526020016040518091039020339080600181540180825580915050600190039060005260206000200160009091909190916101000a81548173ffffffffffffffffffffffffffffffffffffffff021916908373ffffffffffffffffffffffffffffffffffffffff16021790555080806127e890613c79565b915050612715565b506004339080600181540180825580915050600190039060005260206000200160009091909190916101000a81548173ffffffffffffffffffffffffffffffffffffffff021916908373ffffffffffffffffffffffffffffffffffffffff160217905550600190509a9950505050505050505050565b60008054906101000a900473ffffffffffffffffffffffffffffffffffffffff1681565b82805461289690613c47565b90600052602060002090601f0160209004810192826128b857600085556128ff565b82601f106128d157805160ff19168380011785556128ff565b828001600101855582156128ff579182015b828111156128fe5782518255916020019190600101906128e3565b5b50905061290c91906129eb565b5090565b604051806101800160405280600073ffffffffffffffffffffffffffffffffffffffff1681526020016060815260200160608152602001606081526020016060815260200160608152602001606081526020016060815260200160608152602001606081526020016000151581526020016000151581525090565b8280548282559060005260206000209081019282156129da579160200282015b828111156129d95782518290805190602001906129c992919061288a565b50916020019190600101906129ab565b5b5090506129e79190612a08565b5090565b5b80821115612a045760008160009055506001016129ec565b5090565b5b80821115612a285760008181612a1f9190612a2c565b50600101612a09565b5090565b508054612a3890613c47565b6000825580601f10612a4a5750612a69565b601f016020900490600052602060002090810190612a6891906129eb565b5b50565b6000612a7f612a7a84613aa2565b613a71565b9050808382526020820190508260005b85811015612abf5781358501612aa58882612b5b565b845260208401935060208301925050600181019050612a8f565b5050509392505050565b6000612adc612ad784613ace565b613a71565b905082815260208101848484011115612af457600080fd5b612aff848285613c05565b509392505050565b600081359050612b1681613d60565b92915050565b600082601f830112612b2d57600080fd5b8135612b3d848260208601612a6c565b91505092915050565b600081359050612b5581613d77565b92915050565b600082601f830112612b6c57600080fd5b8135612b7c848260208601612ac9565b91505092915050565b600081359050612b9481613d8e565b92915050565b600060208284031215612bac57600080fd5b6000612bba84828501612b07565b91505092915050565b60008060408385031215612bd657600080fd5b6000612be485828601612b07565b9250506020612bf585828601612b07565b9150509250929050565b600080600060608486031215612c1457600080fd5b6000612c2286828701612b07565b9350506020612c3386828701612b07565b9250506040612c4486828701612b85565b9150509250925092565b60008060408385031215612c6157600080fd5b6000612c6f85828601612b07565b9250506020612c8085828601612b46565b9150509250929050565b60008060408385031215612c9d57600080fd5b6000612cab85828601612b07565b9250506020612cbc85828601612b85565b9150509250929050565b600060208284031215612cd857600080fd5b600082013567ffffffffffffffff811115612cf257600080fd5b612cfe84828501612b5b565b91505092915050565b60008060008060008060008060006101208a8c031215612d2657600080fd5b60008a013567ffffffffffffffff811115612d4057600080fd5b612d4c8c828d01612b5b565b99505060208a013567ffffffffffffffff811115612d6957600080fd5b612d758c828d01612b5b565b98505060408a013567ffffffffffffffff811115612d9257600080fd5b612d9e8c828d01612b5b565b97505060608a013567ffffffffffffffff811115612dbb57600080fd5b612dc78c828d01612b5b565b96505060808a013567ffffffffffffffff811115612de457600080fd5b612df08c828d01612b5b565b95505060a08a013567ffffffffffffffff811115612e0d57600080fd5b612e198c828d01612b5b565b94505060c08a013567ffffffffffffffff811115612e3657600080fd5b612e428c828d01612b5b565b93505060e08a013567ffffffffffffffff811115612e5f57600080fd5b612e6b8c828d01612b5b565b9250506101008a013567ffffffffffffffff811115612e8957600080fd5b612e958c828d01612b5b565b9150509295985092959850929598565b6000806000806000806000806000806101408b8d031215612ec557600080fd5b60008b013567ffffffffffffffff811115612edf57600080fd5b612eeb8d828e01612b5b565b9a505060208b013567ffffffffffffffff811115612f0857600080fd5b612f148d828e01612b5b565b99505060408b013567ffffffffffffffff811115612f3157600080fd5b612f3d8d828e01612b5b565b98505060608b013567ffffffffffffffff811115612f5a57600080fd5b612f668d828e01612b5b565b97505060808b013567ffffffffffffffff811115612f8357600080fd5b612f8f8d828e01612b5b565b96505060a08b013567ffffffffffffffff811115612fac57600080fd5b612fb88d828e01612b5b565b95505060c08b013567ffffffffffffffff811115612fd557600080fd5b612fe18d828e01612b5b565b94505060e08b013567ffffffffffffffff811115612ffe57600080fd5b61300a8d828e01612b5b565b9350506101008b013567ffffffffffffffff81111561302857600080fd5b6130348d828e01612b5b565b9250506101208b013567ffffffffffffffff81111561305257600080fd5b61305e8d828e01612b1c565b9150509295989b9194979a5092959850565b6000806040838503121561308357600080fd5b600083013567ffffffffffffffff81111561309d57600080fd5b6130a985828601612b5b565b92505060206130ba85828601612b85565b9150509250929050565b60006130d083836130f0565b60208301905092915050565b60006130e883836131ff565b905092915050565b6130f981613bbd565b82525050565b61310881613bbd565b82525050565b600061311982613b33565b6131238185613b6e565b935061312e83613afe565b8060005b8381101561315f57815161314688826130c4565b975061315183613b54565b925050600181019050613132565b5085935050505092915050565b600061317782613b3e565b6131818185613b7f565b93508360208202850161319385613b0e565b8060005b858110156131cf57848403895281516131b085826130dc565b94506131bb83613b61565b925060208a01995050600181019050613197565b50829750879550505050505092915050565b6131ea81613bcf565b82525050565b6131f981613bcf565b82525050565b600061320a82613b49565b6132148185613b90565b9350613224818560208601613c14565b61322d81613d4f565b840191505092915050565b600061324382613b49565b61324d8185613ba1565b935061325d818560208601613c14565b61326681613d4f565b840191505092915050565b600061327c82613b49565b6132868185613bb2565b9350613296818560208601613c14565b80840191505092915050565b600081546132af81613c47565b6132b98186613bb2565b945060018216600081146132d457600181146132e557613318565b60ff19831686528186019350613318565b6132ee85613b1e565b60005b83811015613310578154818901526001820191506020810190506132f1565b838801955050505b50505092915050565b600061332e603c83613ba1565b91507f5374616b65686f6c6465723a3a736574417070726f76616c466f72416c6c3a2060008301527f43616e6e6f742073657420617070726f76616c20666f722073656c66000000006020830152604082019050919050565b6000613394603183613ba1565b91507f53746f726167653a3a61646452617750726f647563743a205261772070726f6460008301527f75637420616c72656164792061646465640000000000000000000000000000006020830152604082019050919050565b60006133fa603a83613ba1565b91507f5374616b65686f6c6465723a3a7472616e7366657246726f6d3a2043616e6e6f60008301527f74207472616e7366657220746f206e756c6c20616464726573730000000000006020830152604082019050919050565b6000613460602983613ba1565b91507f4f6e6c79207374616b65686f6c6465722063616e20616363657373207468697360008301527f2066756e6374696f6e00000000000000000000000000000000000000000000006020830152604082019050919050565b60006134c6603483613ba1565b91507f53746f726167653a3a726567697374657253746f726167653a2053746f72616760008301527f6520616c726561647920726567697374657265640000000000000000000000006020830152604082019050919050565b600061352c603283613ba1565b91507f5374616b65686f6c6465723a3a7472616e7366657246726f6d3a2043616e6e6f60008301527f74207472616e7366657220746f2073656c6600000000000000000000000000006020830152604082019050919050565b6000613592603583613ba1565b91507f5374616b65686f6c6465723a3a72656769737465723a205374616b65686f6c6460008301527f657220616c7265616479207265676973746572656400000000000000000000006020830152604082019050919050565b60006135f8602f83613ba1565b91507f4f6e6c79206f776e6572206f7220617070726f7665642063616e20616363657360008301527f7320746869732066756e6374696f6e00000000000000000000000000000000006020830152604082019050919050565b600061365e604483613ba1565b91507f5374616b65686f6c6465723a3a736574417070726f76616c466f72416c6c3a2060008301527f43616e6e6f742073657420617070726f76616c20666f72206e756c6c2061646460208301527f72657373000000000000000000000000000000000000000000000000000000006040830152606082019050919050565b6000610180830160008301516136f660008601826130f0565b506020830151848203602086015261370e82826131ff565b9150506040830151848203604086015261372882826131ff565b9150506060830151848203606086015261374282826131ff565b9150506080830151848203608086015261375c82826131ff565b91505060a083015184820360a086015261377682826131ff565b91505060c083015184820360c086015261379082826131ff565b91505060e083015184820360e08601526137aa82826131ff565b9150506101008301518482036101008601526137c682826131ff565b9150506101208301518482036101208601526137e282826131ff565b9150506101408301516137f96101408601826131e1565b5061016083015161380e6101608601826131e1565b508091505092915050565b60006138258284613271565b915081905092915050565b600061383c82846132a2565b915081905092915050565b600060208201905061385c60008301846130ff565b92915050565b6000602082019050818103600083015261387c818461310e565b905092915050565b6000604082019050818103600083015261389e818561310e565b905081810360208301526138b2818461310e565b90509392505050565b60006020820190506138d060008301846131f0565b92915050565b600060208201905081810360008301526138f08184613238565b905092915050565b6000602082019050818103600083015261391181613321565b9050919050565b6000602082019050818103600083015261393181613387565b9050919050565b60006020820190508181036000830152613951816133ed565b9050919050565b6000602082019050818103600083015261397181613453565b9050919050565b60006020820190508181036000830152613991816134b9565b9050919050565b600060208201905081810360008301526139b18161351f565b9050919050565b600060208201905081810360008301526139d181613585565b9050919050565b600060208201905081810360008301526139f1816135eb565b9050919050565b60006020820190508181036000830152613a1181613651565b9050919050565b60006020820190508181036000830152613a3281846136dd565b905092915050565b60006040820190508181036000830152613a5481856136dd565b90508181036020830152613a68818461316c565b90509392505050565b6000604051905081810181811067ffffffffffffffff82111715613a9857613a97613d20565b5b8060405250919050565b600067ffffffffffffffff821115613abd57613abc613d20565b5b602082029050602081019050919050565b600067ffffffffffffffff821115613ae957613ae8613d20565b5b601f19601f8301169050602081019050919050565b6000819050602082019050919050565b6000819050602082019050919050565b60008190508160005260206000209050919050565b600081519050919050565b600081519050919050565b600081519050919050565b6000602082019050919050565b6000602082019050919050565b600082825260208201905092915050565b600082825260208201905092915050565b600082825260208201905092915050565b600082825260208201905092915050565b600081905092915050565b6000613bc882613bdb565b9050919050565b60008115159050919050565b600073ffffffffffffffffffffffffffffffffffffffff82169050919050565b6000819050919050565b82818337600083830152505050565b60005b83811015613c32578082015181840152602081019050613c17565b83811115613c41576000848401525b50505050565b60006002820490506001821680613c5f57607f821691505b60208210811415613c7357613c72613cf1565b5b50919050565b6000613c8482613bfb565b91507fffffffffffffffffffffffffffffffffffffffffffffffffffffffffffffffff821415613cb757613cb6613cc2565b5b600182019050919050565b7f4e487b7100000000000000000000000000000000000000000000000000000000600052601160045260246000fd5b7f4e487b7100000000000000000000000000000000000000000000000000000000600052602260045260246000fd5b7f4e487b7100000000000000000000000000000000000000000000000000000000600052604160045260246000fd5b6000601f19601f8301169050919050565b613d6981613bbd565b8114613d7457600080fd5b50565b613d8081613bcf565b8114613d8b57600080fd5b50565b613d9781613bfb565b8114613da257600080fd5b5056fea2646970667358221220081a78efc45a7b61fccbadf1ad6747b3de0d820589b4db7dce2e3af3d18a4b7064736f6c63430008000033",
  "immutableReferences": {},
  "source": "// SPDX-License-Identifier: MIT\r\npragma solidity ^0.8.0;\r\nimport \"./Stakeholder.sol\";\r\ncontract Farmer is Stakeholder {\r\n    mapping(address => string[]) public _farmerRawProducts;\r\n    mapping(string => address[]) public _rawProductFarmers;\r\n\r\n    constructor() Stakeholder() {}\r\n\r\n    function registerFarmer(\r\n        string memory _name,\r\n        string memory _registration,\r\n        string memory _contact,\r\n        string memory _email,\r\n        string memory _certification,\r\n        string memory _location,\r\n        string memory _role,\r\n        string memory _managerName,\r\n        string memory _managerContact,\r\n        string[] memory _rawProducts\r\n    ) public returns (bool) {\r\n        require(\r\n            _stakeholders[msg.sender].id == address(0),\r\n            \"Storage::registerStorage: Storage already registered\"\r\n        );\r\n        _stakeholders[msg.sender] = stakeholder(\r\n            msg.sender,\r\n            _name,\r\n            _registration,\r\n            _contact,\r\n            _email,\r\n            _certification,\r\n            _location,\r\n            _role,\r\n            _managerName,\r\n            _managerContact,\r\n            false,\r\n            false\r\n        );\r\n        _farmerRawProducts[msg.sender] = _rawProducts;\r\n        for (uint i = 0; i < _rawProducts.length; i++) {\r\n            _rawProductFarmers[_rawProducts[i]].push(msg.sender);\r\n        }\r\n        _stakeholderAddresses.push(msg.sender);\r\n        return true;\r\n    }\r\n\r\n    function addRawProduct(string memory _rawProduct) public returns (bool) {\r\n        bool productAlreadyAdded = false;\r\n        for (uint i = 0; i < _farmerRawProducts[msg.sender].length; i++) {\r\n            if (\r\n                keccak256(\r\n                    abi.encodePacked((_farmerRawProducts[msg.sender][i]))\r\n                ) == keccak256(abi.encodePacked((_rawProduct)))\r\n            ) {\r\n                productAlreadyAdded = true;\r\n            }\r\n        }\r\n        require(\r\n            !productAlreadyAdded,\r\n            \"Storage::addRawProduct: Raw product already added\"\r\n        );\r\n        _farmerRawProducts[msg.sender].push(_rawProduct);\r\n        _rawProductFarmers[_rawProduct].push(msg.sender);\r\n        return true;\r\n    }\r\n\r\n    function getFarmer(\r\n        address _id\r\n    )\r\n        public\r\n        view\r\n        onlyStakeholder(_id)\r\n        returns (stakeholder memory farmer, string[] memory rawProducts)\r\n    {\r\n        farmer = super.get(_id);\r\n        rawProducts = _farmerRawProducts[_id];\r\n    }\r\n\r\n    function getFarmers()\r\n        public\r\n        view\r\n        returns (address[] memory verified, address[] memory requested)\r\n    {\r\n        uint verifiedCount = 0;\r\n        uint requestedCount = 0;\r\n\r\n        for (uint i = 0; i < _stakeholderAddresses.length; i++) {\r\n            if (_stakeholders[_stakeholderAddresses[i]].isVerified) {\r\n                verifiedCount++;\r\n            } else {\r\n                requestedCount++;\r\n            }\r\n        }\r\n\r\n        verified = new address[](verifiedCount);\r\n        requested = new address[](requestedCount);\r\n\r\n        uint verifiedIndex = 0;\r\n        uint requestedIndex = 0;\r\n        for (uint i = 0; i < _stakeholderAddresses.length; i++) {\r\n            if (_stakeholders[_stakeholderAddresses[i]].isVerified) {\r\n                verified[verifiedIndex++] = _stakeholderAddresses[i];\r\n            } else {\r\n                requested[requestedIndex++] = _stakeholderAddresses[i];\r\n            }\r\n        }\r\n    }\r\n\r\n    function getRawProductFarmers(\r\n        string memory _rawProduct\r\n    ) public view returns (address[] memory) {\r\n        return _rawProductFarmers[_rawProduct];\r\n    }\r\n}\r\n",
  "sourcePath": "C:\\Users\\dpaks\\Downloads\\Pre-final Delivery\\supply-chain\\src\\Smart-Contract\\Contracts\\Farmer.sol",
  "compiler": {
    "name": "solc",
    "version": "0.8.0+commit.c7dfd78e.Emscripten.clang"
  },
  "schemaVersion": "3.4.16",
  "updatedAt": "2024-11-04T01:01:19.242Z",
  "networkType": "ethereum",
  "devdoc": {
    "kind": "dev",
    "methods": {},
    "version": 1
  },
  "userdoc": {
    "kind": "user",
    "methods": {},
    "version": 1
  }
}