{
  "contractName": "Manufacturer",
  "abi": [
    {
      "inputs": [],
      "stateMutability": "nonpayable",
      "type": "constructor"
    },
    {
      "inputs": [
        {
          "internalType": "address",
          "name": "",
          "type": "address"
        }
      ],
      "name": "_isRenewableUsed",
      "outputs": [
        {
          "internalType": "bool",
          "name": "",
          "type": "bool"
        }
      ],
      "stateMutability": "view",
      "type": "function",
      "constant": true
    },
    {
      "inputs": [
        {
          "internalType": "address",
          "name": "",
          "type": "address"
        },
        {
          "internalType": "uint256",
          "name": "",
          "type": "uint256"
        }
      ],
      "name": "_launchedProducts",
      "outputs": [
        {
          "internalType": "uint256",
          "name": "",
          "type": "uint256"
        }
      ],
      "stateMutability": "view",
      "type": "function",
      "constant": true
    },
    {
      "inputs": [
        {
          "internalType": "address",
          "name": "",
          "type": "address"
        },
        {
          "internalType": "string",
          "name": "",
          "type": "string"
        },
        {
          "internalType": "uint256",
          "name": "",
          "type": "uint256"
        }
      ],
      "name": "_rawProductSuppliers",
      "outputs": [
        {
          "internalType": "address",
          "name": "",
          "type": "address"
        }
      ],
      "stateMutability": "view",
      "type": "function",
      "constant": true
    },
    {
      "inputs": [
        {
          "internalType": "address",
          "name": "",
          "type": "address"
        },
        {
          "internalType": "string",
          "name": "",
          "type": "string"
        }
      ],
      "name": "_rawProductVerified",
      "outputs": [
        {
          "internalType": "bool",
          "name": "",
          "type": "bool"
        }
      ],
      "stateMutability": "view",
      "type": "function",
      "constant": true
    },
    {
      "inputs": [
        {
          "internalType": "address",
          "name": "",
          "type": "address"
        },
        {
          "internalType": "uint256",
          "name": "",
          "type": "uint256"
        }
      ],
      "name": "_rawProducts",
      "outputs": [
        {
          "internalType": "string",
          "name": "",
          "type": "string"
        }
      ],
      "stateMutability": "view",
      "type": "function",
      "constant": true
    },
    {
      "inputs": [],
      "name": "admin",
      "outputs": [
        {
          "internalType": "address",
          "name": "",
          "type": "address"
        }
      ],
      "stateMutability": "view",
      "type": "function",
      "constant": true
    },
    {
      "inputs": [
        {
          "internalType": "address",
          "name": "_id",
          "type": "address"
        }
      ],
      "name": "get",
      "outputs": [
        {
          "components": [
            {
              "internalType": "address",
              "name": "id",
              "type": "address"
            },
            {
              "internalType": "string",
              "name": "name",
              "type": "string"
            },
            {
              "internalType": "string",
              "name": "registration",
              "type": "string"
            },
            {
              "internalType": "string",
              "name": "contact",
              "type": "string"
            },
            {
              "internalType": "string",
              "name": "email",
              "type": "string"
            },
            {
              "internalType": "string",
              "name": "certification",
              "type": "string"
            },
            {
              "internalType": "string",
              "name": "location",
              "type": "string"
            },
            {
              "internalType": "string",
              "name": "role",
              "type": "string"
            },
            {
              "internalType": "string",
              "name": "managerName",
              "type": "string"
            },
            {
              "internalType": "string",
              "name": "managerContact",
              "type": "string"
            },
            {
              "internalType": "bool",
              "name": "isVerified",
              "type": "bool"
            },
            {
              "internalType": "bool",
              "name": "isRejected",
              "type": "bool"
            }
          ],
          "internalType": "struct Stakeholder.stakeholder",
          "name": "",
          "type": "tuple"
        }
      ],
      "stateMutability": "view",
      "type": "function",
      "constant": true
    },
    {
      "inputs": [],
      "name": "getAddresses",
      "outputs": [
        {
          "internalType": "address[]",
          "name": "",
          "type": "address[]"
        }
      ],
      "stateMutability": "view",
      "type": "function",
      "constant": true
    },
    {
      "inputs": [
        {
          "internalType": "address",
          "name": "_id",
          "type": "address"
        }
      ],
      "name": "getRole",
      "outputs": [
        {
          "internalType": "string",
          "name": "",
          "type": "string"
        }
      ],
      "stateMutability": "view",
      "type": "function",
      "constant": true
    },
    {
      "inputs": [
        {
          "internalType": "address",
          "name": "_account",
          "type": "address"
        }
      ],
      "name": "isAdmin",
      "outputs": [
        {
          "internalType": "bool",
          "name": "",
          "type": "bool"
        }
      ],
      "stateMutability": "view",
      "type": "function",
      "constant": true
    },
    {
      "inputs": [
        {
          "internalType": "address",
          "name": "_owner",
          "type": "address"
        },
        {
          "internalType": "address",
          "name": "_operator",
          "type": "address"
        }
      ],
      "name": "isApprovedForAll",
      "outputs": [
        {
          "internalType": "bool",
          "name": "",
          "type": "bool"
        }
      ],
      "stateMutability": "view",
      "type": "function",
      "constant": true
    },
    {
      "inputs": [
        {
          "internalType": "address",
          "name": "_id",
          "type": "address"
        }
      ],
      "name": "isVerified",
      "outputs": [
        {
          "internalType": "bool",
          "name": "",
          "type": "bool"
        }
      ],
      "stateMutability": "view",
      "type": "function",
      "constant": true
    },
    {
      "inputs": [
        {
          "internalType": "address",
          "name": "_id",
          "type": "address"
        }
      ],
      "name": "reject",
      "outputs": [
        {
          "internalType": "bool",
          "name": "",
          "type": "bool"
        }
      ],
      "stateMutability": "nonpayable",
      "type": "function"
    },
    {
      "inputs": [
        {
          "internalType": "address",
          "name": "_operator",
          "type": "address"
        },
        {
          "internalType": "bool",
          "name": "_approved",
          "type": "bool"
        }
      ],
      "name": "setApprovalForAll",
      "outputs": [
        {
          "internalType": "bool",
          "name": "",
          "type": "bool"
        }
      ],
      "stateMutability": "nonpayable",
      "type": "function"
    },
    {
      "inputs": [
        {
          "internalType": "address",
          "name": "_from",
          "type": "address"
        },
        {
          "internalType": "address",
          "name": "_to",
          "type": "address"
        },
        {
          "internalType": "uint256",
          "name": "_productId",
          "type": "uint256"
        }
      ],
      "name": "transferFrom",
      "outputs": [
        {
          "internalType": "bool",
          "name": "",
          "type": "bool"
        }
      ],
      "stateMutability": "nonpayable",
      "type": "function"
    },
    {
      "inputs": [
        {
          "internalType": "address",
          "name": "_id",
          "type": "address"
        }
      ],
      "name": "verify",
      "outputs": [
        {
          "internalType": "bool",
          "name": "",
          "type": "bool"
        }
      ],
      "stateMutability": "nonpayable",
      "type": "function"
    },
    {
      "inputs": [
        {
          "internalType": "string",
          "name": "_name",
          "type": "string"
        },
        {
          "internalType": "string",
          "name": "_registration",
          "type": "string"
        },
        {
          "internalType": "string",
          "name": "_contact",
          "type": "string"
        },
        {
          "internalType": "string",
          "name": "_email",
          "type": "string"
        },
        {
          "internalType": "string",
          "name": "_certification",
          "type": "string"
        },
        {
          "internalType": "string",
          "name": "_location",
          "type": "string"
        },
        {
          "internalType": "string",
          "name": "_role",
          "type": "string"
        },
        {
          "internalType": "string",
          "name": "_managerName",
          "type": "string"
        },
        {
          "internalType": "string",
          "name": "_managerContact",
          "type": "string"
        }
      ],
      "name": "register",
      "outputs": [
        {
          "internalType": "bool",
          "name": "",
          "type": "bool"
        }
      ],
      "stateMutability": "nonpayable",
      "type": "function"
    },
    {
      "inputs": [
        {
          "internalType": "string",
          "name": "_name",
          "type": "string"
        },
        {
          "components": [
            {
              "internalType": "address",
              "name": "id",
              "type": "address"
            },
            {
              "internalType": "bool",
              "name": "isVerified",
              "type": "bool"
            }
          ],
          "internalType": "struct Manufacturer.supplier[]",
          "name": "_suppliers",
          "type": "tuple[]"
        }
      ],
      "name": "addRawProduct",
      "outputs": [
        {
          "internalType": "bool",
          "name": "",
          "type": "bool"
        }
      ],
      "stateMutability": "nonpayable",
      "type": "function"
    },
    {
      "inputs": [
        {
          "internalType": "address",
          "name": "_id",
          "type": "address"
        }
      ],
      "name": "getManufacturerRawProductDetails",
      "outputs": [
        {
          "components": [
            {
              "internalType": "string",
              "name": "name",
              "type": "string"
            },
            {
              "internalType": "address[]",
              "name": "boughtFromIds",
              "type": "address[]"
            },
            {
              "internalType": "bool",
              "name": "isVerified",
              "type": "bool"
            }
          ],
          "internalType": "struct Manufacturer.rawProduct[]",
          "name": "",
          "type": "tuple[]"
        }
      ],
      "stateMutability": "view",
      "type": "function",
      "constant": true
    },
    {
      "inputs": [
        {
          "internalType": "address",
          "name": "id",
          "type": "address"
        }
      ],
      "name": "getManufacturer",
      "outputs": [
        {
          "components": [
            {
              "internalType": "address",
              "name": "id",
              "type": "address"
            },
            {
              "internalType": "string",
              "name": "name",
              "type": "string"
            },
            {
              "internalType": "string",
              "name": "registration",
              "type": "string"
            },
            {
              "internalType": "string",
              "name": "contact",
              "type": "string"
            },
            {
              "internalType": "string",
              "name": "email",
              "type": "string"
            },
            {
              "internalType": "string",
              "name": "certification",
              "type": "string"
            },
            {
              "internalType": "string",
              "name": "location",
              "type": "string"
            },
            {
              "internalType": "string",
              "name": "role",
              "type": "string"
            },
            {
              "internalType": "string",
              "name": "managerName",
              "type": "string"
            },
            {
              "internalType": "string",
              "name": "managerContact",
              "type": "string"
            },
            {
              "internalType": "bool",
              "name": "isVerified",
              "type": "bool"
            },
            {
              "internalType": "bool",
              "name": "isRejected",
              "type": "bool"
            }
          ],
          "internalType": "struct Stakeholder.stakeholder",
          "name": "manufacturer",
          "type": "tuple"
        },
        {
          "internalType": "bool",
          "name": "isRenewableUsed",
          "type": "bool"
        },
        {
          "components": [
            {
              "internalType": "string",
              "name": "name",
              "type": "string"
            },
            {
              "internalType": "address[]",
              "name": "boughtFromIds",
              "type": "address[]"
            },
            {
              "internalType": "bool",
              "name": "isVerified",
              "type": "bool"
            }
          ],
          "internalType": "struct Manufacturer.rawProduct[]",
          "name": "rawProducts",
          "type": "tuple[]"
        },
        {
          "internalType": "uint256[]",
          "name": "launchedProductIds",
          "type": "uint256[]"
        }
      ],
      "stateMutability": "view",
      "type": "function",
      "constant": true
    },
    {
      "inputs": [],
      "name": "getManufacturers",
      "outputs": [
        {
          "internalType": "address[]",
          "name": "verified",
          "type": "address[]"
        },
        {
          "internalType": "address[]",
          "name": "requested",
          "type": "address[]"
        }
      ],
      "stateMutability": "view",
      "type": "function",
      "constant": true
    },
    {
      "inputs": [
        {
          "internalType": "uint256",
          "name": "_id",
          "type": "uint256"
        }
      ],
      "name": "launchProduct",
      "outputs": [
        {
          "internalType": "bool",
          "name": "",
          "type": "bool"
        }
      ],
      "stateMutability": "nonpayable",
      "type": "function"
    },
    {
      "inputs": [
        {
          "internalType": "address",
          "name": "id",
          "type": "address"
        }
      ],
      "name": "updateEnergy",
      "outputs": [
        {
          "internalType": "bool",
          "name": "",
          "type": "bool"
        }
      ],
      "stateMutability": "nonpayable",
      "type": "function"
    }
  ],
  "bytecode": "0x608060405234801561001057600080fd5b5033806000806101000a81548173ffffffffffffffffffffffffffffffffffffffff021916908373ffffffffffffffffffffffffffffffffffffffff1602179055505061499a806100626000396000f3fe608060405234801561001057600080fd5b506004361061014d5760003560e01c8063a22cb465116100c3578063c2bc2efc1161007c578063c2bc2efc14610462578063ca9840b214610492578063dfcb137d146104c2578063e985e9c5146104f2578063eff5cebf14610522578063f851a440146105525761014d565b8063a22cb46514610365578063a39fac1214610395578063ab0da5a9146103b3578063ae48e5da146103e3578063b9209e3314610413578063bc8a2345146104435761014d565b80634427673311610115578063442767331461024557806344a9c5c6146102755780634afada0a146102a55780635d6396bf146102d55780636330a4a81461030557806363a9c3d7146103355761014d565b8063191bcef61461015257806323b872dd1461018557806324d7806c146101b55780632cfe63fb146101e557806340d1a20814610215575b600080fd5b61016c6004803603810190610167919061375c565b610570565b60405161017c9493929190614571565b60405180910390f35b61019f600480360381019061019a91906137c1565b610e94565b6040516101ac9190614432565b60405180910390f35b6101cf60048036038101906101ca919061375c565b611147565b6040516101dc9190614432565b60405180910390f35b6101ff60048036038101906101fa91906138a0565b6111a0565b60405161020c919061439c565b60405180910390f35b61022f600480360381019061022a9190613907565b611211565b60405161023c919061444d565b60405180910390f35b61025f600480360381019061025a919061375c565b6112ca565b60405161026c919061444d565b60405180910390f35b61028f600480360381019061028a9190613943565b61139e565b60405161029c9190614432565b60405180910390f35b6102bf60048036038101906102ba919061384c565b611825565b6040516102cc9190614432565b60405180910390f35b6102ef60048036038101906102ea91906139af565b61186a565b6040516102fc9190614432565b60405180910390f35b61031f600480360381019061031a919061375c565b611c48565b60405161032c9190614432565b60405180910390f35b61034f600480360381019061034a919061375c565b611c68565b60405161035c9190614432565b60405180910390f35b61037f600480360381019061037a9190613810565b611d26565b60405161038c9190614432565b60405180910390f35b61039d611ea5565b6040516103aa91906143b7565b60405180910390f35b6103cd60048036038101906103c8919061375c565b611f33565b6040516103da9190614432565b60405180910390f35b6103fd60048036038101906103f8919061375c565b61204c565b60405161040a9190614432565b60405180910390f35b61042d6004803603810190610428919061375c565b612108565b60405161043a9190614432565b60405180910390f35b61044b612161565b6040516104599291906143d9565b60405180910390f35b61047c6004803603810190610477919061375c565b6125fe565b604051610489919061454f565b60405180910390f35b6104ac60048036038101906104a79190613b4d565b612d71565b6040516104b99190614432565b60405180910390f35b6104dc60048036038101906104d79190613907565b612e4b565b6040516104e991906145cb565b60405180910390f35b61050c60048036038101906105079190613785565b612e7c565b6040516105199190614432565b60405180910390f35b61053c6004803603810190610537919061375c565b612f10565b6040516105499190614410565b60405180910390f35b61055a61346e565b604051610567919061439c565b60405180910390f35b610578613492565b60006060806040518061018001604052808673ffffffffffffffffffffffffffffffffffffffff168152602001600160008873ffffffffffffffffffffffffffffffffffffffff1673ffffffffffffffffffffffffffffffffffffffff16815260200190815260200160002060010180546105f290614806565b80601f016020809104026020016040519081016040528092919081815260200182805461061e90614806565b801561066b5780601f106106405761010080835404028352916020019161066b565b820191906000526020600020905b81548152906001019060200180831161064e57829003601f168201915b50505050508152602001600160008873ffffffffffffffffffffffffffffffffffffffff1673ffffffffffffffffffffffffffffffffffffffff16815260200190815260200160002060020180546106c290614806565b80601f01602080910402602001604051908101604052809291908181526020018280546106ee90614806565b801561073b5780601f106107105761010080835404028352916020019161073b565b820191906000526020600020905b81548152906001019060200180831161071e57829003601f168201915b50505050508152602001600160008873ffffffffffffffffffffffffffffffffffffffff1673ffffffffffffffffffffffffffffffffffffffff168152602001908152602001600020600301805461079290614806565b80601f01602080910402602001604051908101604052809291908181526020018280546107be90614806565b801561080b5780601f106107e05761010080835404028352916020019161080b565b820191906000526020600020905b8154815290600101906020018083116107ee57829003601f168201915b50505050508152602001600160008873ffffffffffffffffffffffffffffffffffffffff1673ffffffffffffffffffffffffffffffffffffffff168152602001908152602001600020600401805461086290614806565b80601f016020809104026020016040519081016040528092919081815260200182805461088e90614806565b80156108db5780601f106108b0576101008083540402835291602001916108db565b820191906000526020600020905b8154815290600101906020018083116108be57829003601f168201915b50505050508152602001600160008873ffffffffffffffffffffffffffffffffffffffff1673ffffffffffffffffffffffffffffffffffffffff168152602001908152602001600020600501805461093290614806565b80601f016020809104026020016040519081016040528092919081815260200182805461095e90614806565b80156109ab5780601f10610980576101008083540402835291602001916109ab565b820191906000526020600020905b81548152906001019060200180831161098e57829003601f168201915b50505050508152602001600160008873ffffffffffffffffffffffffffffffffffffffff1673ffffffffffffffffffffffffffffffffffffffff1681526020019081526020016000206006018054610a0290614806565b80601f0160208091040260200160405190810160405280929190818152602001828054610a2e90614806565b8015610a7b5780601f10610a5057610100808354040283529160200191610a7b565b820191906000526020600020905b815481529060010190602001808311610a5e57829003601f168201915b50505050508152602001600160008873ffffffffffffffffffffffffffffffffffffffff1673ffffffffffffffffffffffffffffffffffffffff1681526020019081526020016000206007018054610ad290614806565b80601f0160208091040260200160405190810160405280929190818152602001828054610afe90614806565b8015610b4b5780601f10610b2057610100808354040283529160200191610b4b565b820191906000526020600020905b815481529060010190602001808311610b2e57829003601f168201915b50505050508152602001600160008873ffffffffffffffffffffffffffffffffffffffff1673ffffffffffffffffffffffffffffffffffffffff1681526020019081526020016000206008018054610ba290614806565b80601f0160208091040260200160405190810160405280929190818152602001828054610bce90614806565b8015610c1b5780601f10610bf057610100808354040283529160200191610c1b565b820191906000526020600020905b815481529060010190602001808311610bfe57829003601f168201915b50505050508152602001600160008873ffffffffffffffffffffffffffffffffffffffff1673ffffffffffffffffffffffffffffffffffffffff1681526020019081526020016000206009018054610c7290614806565b80601f0160208091040260200160405190810160405280929190818152602001828054610c9e90614806565b8015610ceb5780601f10610cc057610100808354040283529160200191610ceb565b820191906000526020600020905b815481529060010190602001808311610cce57829003601f168201915b50505050508152602001600160008873ffffffffffffffffffffffffffffffffffffffff1673ffffffffffffffffffffffffffffffffffffffff168152602001908152602001600020600a0160009054906101000a900460ff1615158152602001600160008873ffffffffffffffffffffffffffffffffffffffff1673ffffffffffffffffffffffffffffffffffffffff168152602001908152602001600020600a0160019054906101000a900460ff1615158152509350600560008673ffffffffffffffffffffffffffffffffffffffff1673ffffffffffffffffffffffffffffffffffffffff16815260200190815260200160002060009054906101000a900460ff169250610dfb85612f10565b9150600960008673ffffffffffffffffffffffffffffffffffffffff1673ffffffffffffffffffffffffffffffffffffffff168152602001908152602001600020805480602002602001604051908101604052809291908181526020018280548015610e8657602002820191906000526020600020905b815481526020019060010190808311610e72575b505050505090509193509193565b600083826000600260008473ffffffffffffffffffffffffffffffffffffffff1673ffffffffffffffffffffffffffffffffffffffff168152602001908152602001600020600083815260200190815260200160002060009054906101000a900460ff1690506000610f068433612e7c565b80610f3c57508373ffffffffffffffffffffffffffffffffffffffff163373ffffffffffffffffffffffffffffffffffffffff16145b9050818015610f485750805b610f87576040517f08c379a0000000000000000000000000000000000000000000000000000000008152600401610f7e9061450f565b60405180910390fd5b8673ffffffffffffffffffffffffffffffffffffffff168873ffffffffffffffffffffffffffffffffffffffff161415610ff6576040517f08c379a0000000000000000000000000000000000000000000000000000000008152600401610fed906144ef565b60405180910390fd5b600073ffffffffffffffffffffffffffffffffffffffff168773ffffffffffffffffffffffffffffffffffffffff161415611066576040517f08c379a000000000000000000000000000000000000000000000000000000000815260040161105d9061448f565b60405180910390fd5b6000600260008a73ffffffffffffffffffffffffffffffffffffffff1673ffffffffffffffffffffffffffffffffffffffff168152602001908152602001600020600088815260200190815260200160002060006101000a81548160ff0219169083151502179055506001600260008973ffffffffffffffffffffffffffffffffffffffff1673ffffffffffffffffffffffffffffffffffffffff168152602001908152602001600020600088815260200190815260200160002060006101000a81548160ff02191690831515021790555060019450505050509392505050565b60008060009054906101000a900473ffffffffffffffffffffffffffffffffffffffff1673ffffffffffffffffffffffffffffffffffffffff168273ffffffffffffffffffffffffffffffffffffffff16149050919050565b60076020528260005260406000208280516020810182018051848252602083016020850120818352809550505050505081815481106111de57600080fd5b90600052602060002001600092509250509054906101000a900473ffffffffffffffffffffffffffffffffffffffff1681565b6006602052816000526040600020818154811061122d57600080fd5b9060005260206000200160009150915050805461124990614806565b80601f016020809104026020016040519081016040528092919081815260200182805461127590614806565b80156112c25780601f10611297576101008083540402835291602001916112c2565b820191906000526020600020905b8154815290600101906020018083116112a557829003601f168201915b505050505081565b6060600160008373ffffffffffffffffffffffffffffffffffffffff1673ffffffffffffffffffffffffffffffffffffffff168152602001908152602001600020600701805461131990614806565b80601f016020809104026020016040519081016040528092919081815260200182805461134590614806565b80156113925780601f1061136757610100808354040283529160200191611392565b820191906000526020600020905b81548152906001019060200180831161137557829003601f168201915b50505050509050919050565b6000806000905060005b600660003373ffffffffffffffffffffffffffffffffffffffff1673ffffffffffffffffffffffffffffffffffffffff168152602001908152602001600020805490508110156114de5784604051602001611403919061436e565b60405160208183030381529060405280519060200120600660003373ffffffffffffffffffffffffffffffffffffffff1673ffffffffffffffffffffffffffffffffffffffff1681526020019081526020016000208281548110611490577f4e487b7100000000000000000000000000000000000000000000000000000000600052603260045260246000fd5b906000526020600020016040516020016114aa9190614385565b6040516020818303038152906040528051906020012014156114cb57600191505b80806114d690614838565b9150506113a8565b508061155e57600660003373ffffffffffffffffffffffffffffffffffffffff1673ffffffffffffffffffffffffffffffffffffffff1681526020019081526020016000208490806001815401808255809150506001900390600052602060002001600090919091909150908051906020019061155c92919061350d565b505b6001600860003373ffffffffffffffffffffffffffffffffffffffff1673ffffffffffffffffffffffffffffffffffffffff168152602001908152602001600020856040516115ad919061436e565b908152602001604051809103902060006101000a81548160ff02191690831515021790555060005b835181101561181957600760003373ffffffffffffffffffffffffffffffffffffffff1673ffffffffffffffffffffffffffffffffffffffff1681526020019081526020016000208560405161162b919061436e565b9081526020016040518091039020848281518110611672577f4e487b7100000000000000000000000000000000000000000000000000000000600052603260045260246000fd5b6020026020010151600001519080600181540180825580915050600190039060005260206000200160009091909190916101000a81548173ffffffffffffffffffffffffffffffffffffffff021916908373ffffffffffffffffffffffffffffffffffffffff160217905550600860003373ffffffffffffffffffffffffffffffffffffffff1673ffffffffffffffffffffffffffffffffffffffff1681526020019081526020016000208560405161172b919061436e565b908152602001604051809103902060009054906101000a900460ff1680156117945750838181518110611787577f4e487b7100000000000000000000000000000000000000000000000000000000600052603260045260246000fd5b6020026020010151602001515b600860003373ffffffffffffffffffffffffffffffffffffffff1673ffffffffffffffffffffffffffffffffffffffff168152602001908152602001600020866040516117e1919061436e565b908152602001604051809103902060006101000a81548160ff021916908315150217905550808061181190614838565b9150506115d5565b50600191505092915050565b6008602052816000526040600020818051602081018201805184825260208301602085012081835280955050505050506000915091509054906101000a900460ff1681565b60008073ffffffffffffffffffffffffffffffffffffffff16600160003373ffffffffffffffffffffffffffffffffffffffff1673ffffffffffffffffffffffffffffffffffffffff16815260200190815260200160002060000160009054906101000a900473ffffffffffffffffffffffffffffffffffffffff1673ffffffffffffffffffffffffffffffffffffffff161461193c576040517f08c379a0000000000000000000000000000000000000000000000000000000008152600401611933906144af565b60405180910390fd5b6040518061018001604052803373ffffffffffffffffffffffffffffffffffffffff1681526020018b81526020018a815260200189815260200188815260200187815260200186815260200185815260200184815260200183815260200160001515815260200160001515815250600160003373ffffffffffffffffffffffffffffffffffffffff1673ffffffffffffffffffffffffffffffffffffffff16815260200190815260200160002060008201518160000160006101000a81548173ffffffffffffffffffffffffffffffffffffffff021916908373ffffffffffffffffffffffffffffffffffffffff1602179055506020820151816001019080519060200190611a4c92919061350d565b506040820151816002019080519060200190611a6992919061350d565b506060820151816003019080519060200190611a8692919061350d565b506080820151816004019080519060200190611aa392919061350d565b5060a0820151816005019080519060200190611ac092919061350d565b5060c0820151816006019080519060200190611add92919061350d565b5060e0820151816007019080519060200190611afa92919061350d565b50610100820151816008019080519060200190611b1892919061350d565b50610120820151816009019080519060200190611b3692919061350d565b5061014082015181600a0160006101000a81548160ff02191690831515021790555061016082015181600a0160016101000a81548160ff0219169083151502179055509050506000600560003373ffffffffffffffffffffffffffffffffffffffff1673ffffffffffffffffffffffffffffffffffffffff16815260200190815260200160002060006101000a81548160ff0219169083151502179055506004339080600181540180825580915050600190039060005260206000200160009091909190916101000a81548173ffffffffffffffffffffffffffffffffffffffff021916908373ffffffffffffffffffffffffffffffffffffffff160217905550600190509998505050505050505050565b60056020528060005260406000206000915054906101000a900460ff1681565b60008060009054906101000a900473ffffffffffffffffffffffffffffffffffffffff1673ffffffffffffffffffffffffffffffffffffffff163373ffffffffffffffffffffffffffffffffffffffff1614611cc357600080fd5b60018060008473ffffffffffffffffffffffffffffffffffffffff1673ffffffffffffffffffffffffffffffffffffffff168152602001908152602001600020600a0160006101000a81548160ff02191690831515021790555060019050919050565b60008273ffffffffffffffffffffffffffffffffffffffff163373ffffffffffffffffffffffffffffffffffffffff161415611d97576040517f08c379a0000000000000000000000000000000000000000000000000000000008152600401611d8e9061446f565b60405180910390fd5b600073ffffffffffffffffffffffffffffffffffffffff168373ffffffffffffffffffffffffffffffffffffffff161415611e07576040517f08c379a0000000000000000000000000000000000000000000000000000000008152600401611dfe9061452f565b60405180910390fd5b81600360003373ffffffffffffffffffffffffffffffffffffffff1673ffffffffffffffffffffffffffffffffffffffff16815260200190815260200160002060008573ffffffffffffffffffffffffffffffffffffffff1673ffffffffffffffffffffffffffffffffffffffff16815260200190815260200160002060006101000a81548160ff0219169083151502179055506001905092915050565b60606004805480602002602001604051908101604052809291908181526020018280548015611f2957602002820191906000526020600020905b8160009054906101000a900473ffffffffffffffffffffffffffffffffffffffff1673ffffffffffffffffffffffffffffffffffffffff1681526020019060010190808311611edf575b5050505050905090565b60008060009054906101000a900473ffffffffffffffffffffffffffffffffffffffff1673ffffffffffffffffffffffffffffffffffffffff163373ffffffffffffffffffffffffffffffffffffffff1614611f8e57600080fd5b6000600160008473ffffffffffffffffffffffffffffffffffffffff1673ffffffffffffffffffffffffffffffffffffffff168152602001908152602001600020600a0160006101000a81548160ff02191690831515021790555060018060008473ffffffffffffffffffffffffffffffffffffffff1673ffffffffffffffffffffffffffffffffffffffff168152602001908152602001600020600a0160016101000a81548160ff02191690831515021790555060019050919050565b60008060009054906101000a900473ffffffffffffffffffffffffffffffffffffffff1673ffffffffffffffffffffffffffffffffffffffff163373ffffffffffffffffffffffffffffffffffffffff16146120a757600080fd5b6001600560008473ffffffffffffffffffffffffffffffffffffffff1673ffffffffffffffffffffffffffffffffffffffff16815260200190815260200160002060006101000a81548160ff02191690831515021790555060019050919050565b6000600160008373ffffffffffffffffffffffffffffffffffffffff1673ffffffffffffffffffffffffffffffffffffffff168152602001908152602001600020600a0160009054906101000a900460ff169050919050565b60608060008060005b6004805490508110156122655760016000600483815481106121b5577f4e487b7100000000000000000000000000000000000000000000000000000000600052603260045260246000fd5b9060005260206000200160009054906101000a900473ffffffffffffffffffffffffffffffffffffffff1673ffffffffffffffffffffffffffffffffffffffff1673ffffffffffffffffffffffffffffffffffffffff168152602001908152602001600020600a0160009054906101000a900460ff161561224357828061223b90614838565b935050612252565b818061224e90614838565b9250505b808061225d90614838565b91505061216a565b508167ffffffffffffffff8111156122a6577f4e487b7100000000000000000000000000000000000000000000000000000000600052604160045260246000fd5b6040519080825280602002602001820160405280156122d45781602001602082028036833780820191505090505b5093508067ffffffffffffffff811115612317577f4e487b7100000000000000000000000000000000000000000000000000000000600052604160045260246000fd5b6040519080825280602002602001820160405280156123455781602001602082028036833780820191505090505b50925060008060005b6004805490508110156125f5576001600060048381548110612399577f4e487b7100000000000000000000000000000000000000000000000000000000600052603260045260246000fd5b9060005260206000200160009054906101000a900473ffffffffffffffffffffffffffffffffffffffff1673ffffffffffffffffffffffffffffffffffffffff1673ffffffffffffffffffffffffffffffffffffffff168152602001908152602001600020600a0160009054906101000a900460ff16156124fd576004818154811061244e577f4e487b7100000000000000000000000000000000000000000000000000000000600052603260045260246000fd5b9060005260206000200160009054906101000a900473ffffffffffffffffffffffffffffffffffffffff1687848061248590614838565b9550815181106124be577f4e487b7100000000000000000000000000000000000000000000000000000000600052603260045260246000fd5b602002602001019073ffffffffffffffffffffffffffffffffffffffff16908173ffffffffffffffffffffffffffffffffffffffff16815250506125e2565b60048181548110612537577f4e487b7100000000000000000000000000000000000000000000000000000000600052603260045260246000fd5b9060005260206000200160009054906101000a900473ffffffffffffffffffffffffffffffffffffffff1686838061256e90614838565b9450815181106125a7577f4e487b7100000000000000000000000000000000000000000000000000000000600052603260045260246000fd5b602002602001019073ffffffffffffffffffffffffffffffffffffffff16908173ffffffffffffffffffffffffffffffffffffffff16815250505b80806125ed90614838565b91505061234e565b50505050509091565b612606613492565b81600160003373ffffffffffffffffffffffffffffffffffffffff1673ffffffffffffffffffffffffffffffffffffffff16815260200190815260200160002060000160009054906101000a900473ffffffffffffffffffffffffffffffffffffffff1673ffffffffffffffffffffffffffffffffffffffff168173ffffffffffffffffffffffffffffffffffffffff1614806127315750600073ffffffffffffffffffffffffffffffffffffffff16600160003373ffffffffffffffffffffffffffffffffffffffff1673ffffffffffffffffffffffffffffffffffffffff16815260200190815260200160002060000160009054906101000a900473ffffffffffffffffffffffffffffffffffffffff1673ffffffffffffffffffffffffffffffffffffffff16145b612770576040517f08c379a0000000000000000000000000000000000000000000000000000000008152600401612767906144cf565b60405180910390fd5b600160008473ffffffffffffffffffffffffffffffffffffffff1673ffffffffffffffffffffffffffffffffffffffff168152602001908152602001600020604051806101800160405290816000820160009054906101000a900473ffffffffffffffffffffffffffffffffffffffff1673ffffffffffffffffffffffffffffffffffffffff1673ffffffffffffffffffffffffffffffffffffffff16815260200160018201805461282190614806565b80601f016020809104026020016040519081016040528092919081815260200182805461284d90614806565b801561289a5780601f1061286f5761010080835404028352916020019161289a565b820191906000526020600020905b81548152906001019060200180831161287d57829003601f168201915b505050505081526020016002820180546128b390614806565b80601f01602080910402602001604051908101604052809291908181526020018280546128df90614806565b801561292c5780601f106129015761010080835404028352916020019161292c565b820191906000526020600020905b81548152906001019060200180831161290f57829003601f168201915b5050505050815260200160038201805461294590614806565b80601f016020809104026020016040519081016040528092919081815260200182805461297190614806565b80156129be5780601f10612993576101008083540402835291602001916129be565b820191906000526020600020905b8154815290600101906020018083116129a157829003601f168201915b505050505081526020016004820180546129d790614806565b80601f0160208091040260200160405190810160405280929190818152602001828054612a0390614806565b8015612a505780601f10612a2557610100808354040283529160200191612a50565b820191906000526020600020905b815481529060010190602001808311612a3357829003601f168201915b50505050508152602001600582018054612a6990614806565b80601f0160208091040260200160405190810160405280929190818152602001828054612a9590614806565b8015612ae25780601f10612ab757610100808354040283529160200191612ae2565b820191906000526020600020905b815481529060010190602001808311612ac557829003601f168201915b50505050508152602001600682018054612afb90614806565b80601f0160208091040260200160405190810160405280929190818152602001828054612b2790614806565b8015612b745780601f10612b4957610100808354040283529160200191612b74565b820191906000526020600020905b815481529060010190602001808311612b5757829003601f168201915b50505050508152602001600782018054612b8d90614806565b80601f0160208091040260200160405190810160405280929190818152602001828054612bb990614806565b8015612c065780601f10612bdb57610100808354040283529160200191612c06565b820191906000526020600020905b815481529060010190602001808311612be957829003601f168201915b50505050508152602001600882018054612c1f90614806565b80601f0160208091040260200160405190810160405280929190818152602001828054612c4b90614806565b8015612c985780601f10612c6d57610100808354040283529160200191612c98565b820191906000526020600020905b815481529060010190602001808311612c7b57829003601f168201915b50505050508152602001600982018054612cb190614806565b80601f0160208091040260200160405190810160405280929190818152602001828054612cdd90614806565b8015612d2a5780601f10612cff57610100808354040283529160200191612d2a565b820191906000526020600020905b815481529060010190602001808311612d0d57829003601f168201915b50505050508152602001600a820160009054906101000a900460ff16151515158152602001600a820160019054906101000a900460ff161515151581525050915050919050565b6000600960003373ffffffffffffffffffffffffffffffffffffffff1673ffffffffffffffffffffffffffffffffffffffff1681526020019081526020016000208290806001815401808255809150506001900390600052602060002001600090919091909150556001600260003373ffffffffffffffffffffffffffffffffffffffff1673ffffffffffffffffffffffffffffffffffffffff168152602001908152602001600020600084815260200190815260200160002060006101000a81548160ff02191690831515021790555060019050919050565b60096020528160005260406000208181548110612e6757600080fd5b90600052602060002001600091509150505481565b6000600360008473ffffffffffffffffffffffffffffffffffffffff1673ffffffffffffffffffffffffffffffffffffffff16815260200190815260200160002060008373ffffffffffffffffffffffffffffffffffffffff1673ffffffffffffffffffffffffffffffffffffffff16815260200190815260200160002060009054906101000a900460ff16905092915050565b60606000600660008473ffffffffffffffffffffffffffffffffffffffff1673ffffffffffffffffffffffffffffffffffffffff1681526020019081526020016000208054905067ffffffffffffffff811115612f96577f4e487b7100000000000000000000000000000000000000000000000000000000600052604160045260246000fd5b604051908082528060200260200182016040528015612fcf57816020015b612fbc613593565b815260200190600190039081612fb45790505b50905060005b600660008573ffffffffffffffffffffffffffffffffffffffff1673ffffffffffffffffffffffffffffffffffffffff1681526020019081526020016000208054905081101561346457600660008573ffffffffffffffffffffffffffffffffffffffff1673ffffffffffffffffffffffffffffffffffffffff1681526020019081526020016000208181548110613096577f4e487b7100000000000000000000000000000000000000000000000000000000600052603260045260246000fd5b9060005260206000200180546130ab90614806565b80601f01602080910402602001604051908101604052809291908181526020018280546130d790614806565b80156131245780601f106130f957610100808354040283529160200191613124565b820191906000526020600020905b81548152906001019060200180831161310757829003601f168201915b5050505050828281518110613162577f4e487b7100000000000000000000000000000000000000000000000000000000600052603260045260246000fd5b602002602001015160000181905250600760008573ffffffffffffffffffffffffffffffffffffffff1673ffffffffffffffffffffffffffffffffffffffff168152602001908152602001600020600660008673ffffffffffffffffffffffffffffffffffffffff1673ffffffffffffffffffffffffffffffffffffffff1681526020019081526020016000208281548110613227577f4e487b7100000000000000000000000000000000000000000000000000000000600052603260045260246000fd5b9060005260206000200160405161323e9190614385565b90815260200160405180910390208054806020026020016040519081016040528092919081815260200182805480156132cc57602002820191906000526020600020905b8160009054906101000a900473ffffffffffffffffffffffffffffffffffffffff1673ffffffffffffffffffffffffffffffffffffffff1681526020019060010190808311613282575b505050505082828151811061330a577f4e487b7100000000000000000000000000000000000000000000000000000000600052603260045260246000fd5b602002602001015160200181905250600860008573ffffffffffffffffffffffffffffffffffffffff1673ffffffffffffffffffffffffffffffffffffffff168152602001908152602001600020600660008673ffffffffffffffffffffffffffffffffffffffff1673ffffffffffffffffffffffffffffffffffffffff16815260200190815260200160002082815481106133cf577f4e487b7100000000000000000000000000000000000000000000000000000000600052603260045260246000fd5b906000526020600020016040516133e69190614385565b908152602001604051809103902060009054906101000a900460ff1682828151811061343b577f4e487b7100000000000000000000000000000000000000000000000000000000600052603260045260246000fd5b60200260200101516040019015159081151581525050808061345c90614838565b915050612fd5565b5080915050919050565b60008054906101000a900473ffffffffffffffffffffffffffffffffffffffff1681565b604051806101800160405280600073ffffffffffffffffffffffffffffffffffffffff1681526020016060815260200160608152602001606081526020016060815260200160608152602001606081526020016060815260200160608152602001606081526020016000151581526020016000151581525090565b82805461351990614806565b90600052602060002090601f01602090048101928261353b5760008555613582565b82601f1061355457805160ff1916838001178555613582565b82800160010185558215613582579182015b82811115613581578251825591602001919060010190613566565b5b50905061358f91906135b6565b5090565b604051806060016040528060608152602001606081526020016000151581525090565b5b808211156135cf5760008160009055506001016135b7565b5090565b60006135e66135e184614617565b6145e6565b9050808382526020820190508285604086028201111561360557600080fd5b60005b85811015613635578161361b88826136fb565b845260208401935060408301925050600181019050613608565b5050509392505050565b600061365261364d84614643565b6145e6565b90508281526020810184848401111561366a57600080fd5b6136758482856147c4565b509392505050565b60008135905061368c8161491f565b92915050565b600082601f8301126136a357600080fd5b81356136b38482602086016135d3565b91505092915050565b6000813590506136cb81614936565b92915050565b600082601f8301126136e257600080fd5b81356136f284826020860161363f565b91505092915050565b60006040828403121561370d57600080fd5b61371760406145e6565b905060006137278482850161367d565b600083015250602061373b848285016136bc565b60208301525092915050565b6000813590506137568161494d565b92915050565b60006020828403121561376e57600080fd5b600061377c8482850161367d565b91505092915050565b6000806040838503121561379857600080fd5b60006137a68582860161367d565b92505060206137b78582860161367d565b9150509250929050565b6000806000606084860312156137d657600080fd5b60006137e48682870161367d565b93505060206137f58682870161367d565b925050604061380686828701613747565b9150509250925092565b6000806040838503121561382357600080fd5b60006138318582860161367d565b9250506020613842858286016136bc565b9150509250929050565b6000806040838503121561385f57600080fd5b600061386d8582860161367d565b925050602083013567ffffffffffffffff81111561388a57600080fd5b613896858286016136d1565b9150509250929050565b6000806000606084860312156138b557600080fd5b60006138c38682870161367d565b935050602084013567ffffffffffffffff8111156138e057600080fd5b6138ec868287016136d1565b92505060406138fd86828701613747565b9150509250925092565b6000806040838503121561391a57600080fd5b60006139288582860161367d565b925050602061393985828601613747565b9150509250929050565b6000806040838503121561395657600080fd5b600083013567ffffffffffffffff81111561397057600080fd5b61397c858286016136d1565b925050602083013567ffffffffffffffff81111561399957600080fd5b6139a585828601613692565b9150509250929050565b60008060008060008060008060006101208a8c0312156139ce57600080fd5b60008a013567ffffffffffffffff8111156139e857600080fd5b6139f48c828d016136d1565b99505060208a013567ffffffffffffffff811115613a1157600080fd5b613a1d8c828d016136d1565b98505060408a013567ffffffffffffffff811115613a3a57600080fd5b613a468c828d016136d1565b97505060608a013567ffffffffffffffff811115613a6357600080fd5b613a6f8c828d016136d1565b96505060808a013567ffffffffffffffff811115613a8c57600080fd5b613a988c828d016136d1565b95505060a08a013567ffffffffffffffff811115613ab557600080fd5b613ac18c828d016136d1565b94505060c08a013567ffffffffffffffff811115613ade57600080fd5b613aea8c828d016136d1565b93505060e08a013567ffffffffffffffff811115613b0757600080fd5b613b138c828d016136d1565b9250506101008a013567ffffffffffffffff811115613b3157600080fd5b613b3d8c828d016136d1565b9150509295985092959850929598565b600060208284031215613b5f57600080fd5b6000613b6d84828501613747565b91505092915050565b6000613b828383613bba565b60208301905092915050565b6000613b9a83836141bd565b905092915050565b6000613bae8383614350565b60208301905092915050565b613bc38161477c565b82525050565b613bd28161477c565b82525050565b6000613be3826146b8565b613bed818561470b565b9350613bf883614673565b8060005b83811015613c29578151613c108882613b76565b9750613c1b836146e4565b925050600181019050613bfc565b5085935050505092915050565b6000613c41826146b8565b613c4b818561471c565b9350613c5683614673565b8060005b83811015613c87578151613c6e8882613b76565b9750613c79836146e4565b925050600181019050613c5a565b5085935050505092915050565b6000613c9f826146c3565b613ca9818561472d565b935083602082028501613cbb85614683565b8060005b85811015613cf75784840389528151613cd88582613b8e565b9450613ce3836146f1565b925060208a01995050600181019050613cbf565b50829750879550505050505092915050565b6000613d14826146ce565b613d1e818561473e565b9350613d2983614693565b8060005b83811015613d5a578151613d418882613ba2565b9750613d4c836146fe565b925050600181019050613d2d565b5085935050505092915050565b613d708161478e565b82525050565b613d7f8161478e565b82525050565b6000613d90826146d9565b613d9a818561474f565b9350613daa8185602086016147d3565b613db38161490e565b840191505092915050565b6000613dc9826146d9565b613dd38185614760565b9350613de38185602086016147d3565b613dec8161490e565b840191505092915050565b6000613e02826146d9565b613e0c8185614771565b9350613e1c8185602086016147d3565b80840191505092915050565b60008154613e3581614806565b613e3f8186614771565b94506001821660008114613e5a5760018114613e6b57613e9e565b60ff19831686528186019350613e9e565b613e74856146a3565b60005b83811015613e9657815481890152600182019150602081019050613e77565b838801955050505b50505092915050565b6000613eb4603c83614760565b91507f5374616b65686f6c6465723a3a736574417070726f76616c466f72416c6c3a2060008301527f43616e6e6f742073657420617070726f76616c20666f722073656c66000000006020830152604082019050919050565b6000613f1a603a83614760565b91507f5374616b65686f6c6465723a3a7472616e7366657246726f6d3a2043616e6e6f60008301527f74207472616e7366657220746f206e756c6c20616464726573730000000000006020830152604082019050919050565b6000613f80604383614760565b91507f4d616e7566616374757265723a3a72656769737465724d616e7566616374757260008301527f65723a204d616e75666163747572657220616c7265616479207265676973746560208301527f72656400000000000000000000000000000000000000000000000000000000006040830152606082019050919050565b600061400c602983614760565b91507f4f6e6c79207374616b65686f6c6465722063616e20616363657373207468697360008301527f2066756e6374696f6e00000000000000000000000000000000000000000000006020830152604082019050919050565b6000614072603283614760565b91507f5374616b65686f6c6465723a3a7472616e7366657246726f6d3a2043616e6e6f60008301527f74207472616e7366657220746f2073656c6600000000000000000000000000006020830152604082019050919050565b60006140d8602f83614760565b91507f4f6e6c79206f776e6572206f7220617070726f7665642063616e20616363657360008301527f7320746869732066756e6374696f6e00000000000000000000000000000000006020830152604082019050919050565b600061413e604483614760565b91507f5374616b65686f6c6465723a3a736574417070726f76616c466f72416c6c3a2060008301527f43616e6e6f742073657420617070726f76616c20666f72206e756c6c2061646460208301527f72657373000000000000000000000000000000000000000000000000000000006040830152606082019050919050565b600060608301600083015184820360008601526141da8282613d85565b915050602083015184820360208601526141f48282613bd8565b91505060408301516142096040860182613d67565b508091505092915050565b60006101808301600083015161422d6000860182613bba565b50602083015184820360208601526142458282613d85565b9150506040830151848203604086015261425f8282613d85565b915050606083015184820360608601526142798282613d85565b915050608083015184820360808601526142938282613d85565b91505060a083015184820360a08601526142ad8282613d85565b91505060c083015184820360c08601526142c78282613d85565b91505060e083015184820360e08601526142e18282613d85565b9150506101008301518482036101008601526142fd8282613d85565b9150506101208301518482036101208601526143198282613d85565b915050610140830151614330610140860182613d67565b50610160830151614345610160860182613d67565b508091505092915050565b614359816147ba565b82525050565b614368816147ba565b82525050565b600061437a8284613df7565b915081905092915050565b60006143918284613e28565b915081905092915050565b60006020820190506143b16000830184613bc9565b92915050565b600060208201905081810360008301526143d18184613c36565b905092915050565b600060408201905081810360008301526143f38185613c36565b905081810360208301526144078184613c36565b90509392505050565b6000602082019050818103600083015261442a8184613c94565b905092915050565b60006020820190506144476000830184613d76565b92915050565b600060208201905081810360008301526144678184613dbe565b905092915050565b6000602082019050818103600083015261448881613ea7565b9050919050565b600060208201905081810360008301526144a881613f0d565b9050919050565b600060208201905081810360008301526144c881613f73565b9050919050565b600060208201905081810360008301526144e881613fff565b9050919050565b6000602082019050818103600083015261450881614065565b9050919050565b60006020820190508181036000830152614528816140cb565b9050919050565b6000602082019050818103600083015261454881614131565b9050919050565b600060208201905081810360008301526145698184614214565b905092915050565b6000608082019050818103600083015261458b8187614214565b905061459a6020830186613d76565b81810360408301526145ac8185613c94565b905081810360608301526145c08184613d09565b905095945050505050565b60006020820190506145e0600083018461435f565b92915050565b6000604051905081810181811067ffffffffffffffff8211171561460d5761460c6148df565b5b8060405250919050565b600067ffffffffffffffff821115614632576146316148df565b5b602082029050602081019050919050565b600067ffffffffffffffff82111561465e5761465d6148df565b5b601f19601f8301169050602081019050919050565b6000819050602082019050919050565b6000819050602082019050919050565b6000819050602082019050919050565b60008190508160005260206000209050919050565b600081519050919050565b600081519050919050565b600081519050919050565b600081519050919050565b6000602082019050919050565b6000602082019050919050565b6000602082019050919050565b600082825260208201905092915050565b600082825260208201905092915050565b600082825260208201905092915050565b600082825260208201905092915050565b600082825260208201905092915050565b600082825260208201905092915050565b600081905092915050565b60006147878261479a565b9050919050565b60008115159050919050565b600073ffffffffffffffffffffffffffffffffffffffff82169050919050565b6000819050919050565b82818337600083830152505050565b60005b838110156147f15780820151818401526020810190506147d6565b83811115614800576000848401525b50505050565b6000600282049050600182168061481e57607f821691505b60208210811415614832576148316148b0565b5b50919050565b6000614843826147ba565b91507fffffffffffffffffffffffffffffffffffffffffffffffffffffffffffffffff82141561487657614875614881565b5b600182019050919050565b7f4e487b7100000000000000000000000000000000000000000000000000000000600052601160045260246000fd5b7f4e487b7100000000000000000000000000000000000000000000000000000000600052602260045260246000fd5b7f4e487b7100000000000000000000000000000000000000000000000000000000600052604160045260246000fd5b6000601f19601f8301169050919050565b6149288161477c565b811461493357600080fd5b50565b61493f8161478e565b811461494a57600080fd5b50565b614956816147ba565b811461496157600080fd5b5056fea2646970667358221220cea57c7941ca3ec135b28bbaf96436d43ae8442f5d096c0185ef2f16eddf180c64736f6c63430008000033",
  "immutableReferences": {},
  "source": "// SPDX-License-Identifier: MIT\r\npragma solidity ^0.8.0;\r\nimport \"./Stakeholder.sol\";\r\nimport \"./Farmer.sol\";\r\n\r\ncontract Manufacturer is Stakeholder {\r\n    struct rawProduct {\r\n        string name;\r\n        address[] boughtFromIds;\r\n        bool isVerified;\r\n    }\r\n\r\n    struct supplier {\r\n        address id;\r\n        bool isVerified;\r\n    }\r\n\r\n    mapping(address => bool) public _isRenewableUsed;\r\n    mapping(address => string[]) public _rawProducts;\r\n    mapping(address => mapping(string => address[]))\r\n        public _rawProductSuppliers;\r\n    mapping(address => mapping(string => bool)) public _rawProductVerified;\r\n    mapping(address => uint256[]) public _launchedProducts;\r\n\r\n    constructor() Stakeholder() {}\r\n\r\n    function register(\r\n        string memory _name,\r\n        string memory _registration,\r\n        string memory _contact,\r\n        string memory _email,\r\n        string memory _certification,\r\n        string memory _location,\r\n        string memory _role,\r\n        string memory _managerName,\r\n        string memory _managerContact\r\n    ) public override returns (bool) {\r\n        require(\r\n            _stakeholders[msg.sender].id == address(0),\r\n            \"Manufacturer::registerManufacturer: Manufacturer already registered\"\r\n        );\r\n        _stakeholders[msg.sender] = stakeholder(\r\n            msg.sender,\r\n            _name,\r\n            _registration,\r\n            _contact,\r\n            _email,\r\n            _certification,\r\n            _location,\r\n            _role,\r\n            _managerName,\r\n            _managerContact,\r\n            false,\r\n            false\r\n        );\r\n        _isRenewableUsed[msg.sender] = false;\r\n        _stakeholderAddresses.push(msg.sender);\r\n        return true;\r\n    }\r\n\r\n    function addRawProduct(\r\n        string memory _name,\r\n        supplier[] memory _suppliers\r\n    ) public returns (bool) {\r\n        bool productAlreadyAdded = false;\r\n        for (uint i = 0; i < _rawProducts[msg.sender].length; i++) {\r\n            if (\r\n                keccak256(abi.encodePacked((_rawProducts[msg.sender][i]))) ==\r\n                keccak256(abi.encodePacked((_name)))\r\n            ) {\r\n                productAlreadyAdded = true;\r\n            }\r\n        }\r\n        if (!productAlreadyAdded) {\r\n            _rawProducts[msg.sender].push(_name);\r\n        }\r\n        _rawProductVerified[msg.sender][_name] = true;\r\n        for (uint i = 0; i < _suppliers.length; i++) {\r\n            _rawProductSuppliers[msg.sender][_name].push(_suppliers[i].id);\r\n            _rawProductVerified[msg.sender][_name] =\r\n                _rawProductVerified[msg.sender][_name] &&\r\n                _suppliers[i].isVerified;\r\n        }\r\n        return true;\r\n    }\r\n\r\n    function getManufacturerRawProductDetails(\r\n        address _id\r\n    ) public view returns (rawProduct[] memory) {\r\n        rawProduct[] memory rawProducts = new rawProduct[](\r\n            _rawProducts[_id].length\r\n        );\r\n        for (uint i = 0; i < _rawProducts[_id].length; i++) {\r\n            rawProducts[i].name = _rawProducts[_id][i];\r\n            rawProducts[i].boughtFromIds = _rawProductSuppliers[_id][\r\n                _rawProducts[_id][i]\r\n            ];\r\n            rawProducts[i].isVerified = _rawProductVerified[_id][\r\n                _rawProducts[_id][i]\r\n            ];\r\n        }\r\n        return rawProducts;\r\n    }\r\n\r\n    function getManufacturer(\r\n        address id\r\n    )\r\n        public\r\n        view\r\n        returns (\r\n            stakeholder memory manufacturer,\r\n            bool isRenewableUsed,\r\n            rawProduct[] memory rawProducts,\r\n            uint256[] memory launchedProductIds\r\n        )\r\n    {\r\n        manufacturer = stakeholder(\r\n            id,\r\n            _stakeholders[id].name,\r\n            _stakeholders[id].registration,\r\n            _stakeholders[id].contact,\r\n            _stakeholders[id].email,\r\n            _stakeholders[id].certification,\r\n            _stakeholders[id].location,\r\n            _stakeholders[id].role,\r\n            _stakeholders[id].managerName,\r\n            _stakeholders[id].managerContact,\r\n            _stakeholders[id].isVerified,\r\n            _stakeholders[id].isRejected\r\n        );\r\n        isRenewableUsed = _isRenewableUsed[id];\r\n        rawProducts = getManufacturerRawProductDetails(id);\r\n        launchedProductIds = _launchedProducts[id];\r\n    }\r\n\r\n    function getManufacturers()\r\n        public\r\n        view\r\n        returns (address[] memory verified, address[] memory requested)\r\n    {\r\n        uint verifiedCount = 0;\r\n        uint requestedCount = 0;\r\n\r\n        for (uint i = 0; i < _stakeholderAddresses.length; i++) {\r\n            if (_stakeholders[_stakeholderAddresses[i]].isVerified) {\r\n                verifiedCount++;\r\n            } else {\r\n                requestedCount++;\r\n            }\r\n        }\r\n\r\n        verified = new address[](verifiedCount);\r\n        requested = new address[](requestedCount);\r\n\r\n        uint verifiedIndex = 0;\r\n        uint requestedIndex = 0;\r\n        for (uint i = 0; i < _stakeholderAddresses.length; i++) {\r\n            if (_stakeholders[_stakeholderAddresses[i]].isVerified) {\r\n                verified[verifiedIndex++] = _stakeholderAddresses[i];\r\n            } else {\r\n                requested[requestedIndex++] = _stakeholderAddresses[i];\r\n            }\r\n        }\r\n    }\r\n\r\n    function launchProduct(uint256 _id) public returns (bool) {\r\n        _launchedProducts[msg.sender].push(_id);\r\n        _stakeholderProductOwnership[msg.sender][_id] = true;\r\n        return true;\r\n    }\r\n\r\n    function updateEnergy(address id) public onlyAdmin returns (bool) {\r\n        _isRenewableUsed[id] = true;\r\n        return true;\r\n    }\r\n}\r\n",
  "sourcePath": "C:\\Users\\dpaks\\Downloads\\Pre-final Delivery\\supply-chain\\src\\Smart-Contract\\Contracts\\Manufacturer.sol",
  "compiler": {
    "name": "solc",
    "version": "0.8.0+commit.c7dfd78e.Emscripten.clang"
  },
  "schemaVersion": "3.4.16",
  "updatedAt": "2024-11-04T01:01:19.252Z",
  "networkType": "ethereum",
  "devdoc": {
    "kind": "dev",
    "methods": {},
    "version": 1
  },
  "userdoc": {
    "kind": "user",
    "methods": {},
    "version": 1
  }
}