{
  "contractName": "Product",
  "abi": [
    {
      "inputs": [],
      "stateMutability": "nonpayable",
      "type": "constructor"
    },
    {
      "inputs": [
        {
          "internalType": "uint256",
          "name": "",
          "type": "uint256"
        }
      ],
      "name": "_itemIds",
      "outputs": [
        {
          "internalType": "uint256",
          "name": "",
          "type": "uint256"
        }
      ],
      "stateMutability": "view",
      "type": "function",
      "constant": true
    },
    {
      "inputs": [
        {
          "internalType": "uint256",
          "name": "",
          "type": "uint256"
        }
      ],
      "name": "_items",
      "outputs": [
        {
          "internalType": "uint256",
          "name": "id",
          "type": "uint256"
        },
        {
          "internalType": "string",
          "name": "title",
          "type": "string"
        },
        {
          "internalType": "address",
          "name": "manufacturer",
          "type": "address"
        },
        {
          "internalType": "address",
          "name": "currentOwner",
          "type": "address"
        },
        {
          "internalType": "address",
          "name": "lastOwner",
          "type": "address"
        },
        {
          "internalType": "uint256",
          "name": "launchDate",
          "type": "uint256"
        },
        {
          "internalType": "string",
          "name": "material",
          "type": "string"
        },
        {
          "internalType": "string",
          "name": "status",
          "type": "string"
        },
        {
          "internalType": "string",
          "name": "tempStatus",
          "type": "string"
        },
        {
          "internalType": "string",
          "name": "longStatus",
          "type": "string"
        },
        {
          "internalType": "string",
          "name": "radioactivityLevel",
          "type": "string"
        },
        {
          "internalType": "string",
          "name": "dimensions",
          "type": "string"
        }
      ],
      "stateMutability": "view",
      "type": "function",
      "constant": true
    },
    {
      "inputs": [
        {
          "internalType": "address",
          "name": "owner",
          "type": "address"
        }
      ],
      "name": "getProductsByOwner",
      "outputs": [
        {
          "components": [
            {
              "internalType": "uint256",
              "name": "id",
              "type": "uint256"
            },
            {
              "internalType": "string",
              "name": "title",
              "type": "string"
            },
            {
              "internalType": "address",
              "name": "manufacturer",
              "type": "address"
            },
            {
              "internalType": "address",
              "name": "currentOwner",
              "type": "address"
            },
            {
              "internalType": "address",
              "name": "lastOwner",
              "type": "address"
            },
            {
              "internalType": "uint256",
              "name": "launchDate",
              "type": "uint256"
            },
            {
              "internalType": "string",
              "name": "material",
              "type": "string"
            },
            {
              "internalType": "string",
              "name": "status",
              "type": "string"
            },
            {
              "internalType": "string",
              "name": "tempStatus",
              "type": "string"
            },
            {
              "internalType": "string",
              "name": "longStatus",
              "type": "string"
            },
            {
              "internalType": "string",
              "name": "radioactivityLevel",
              "type": "string"
            },
            {
              "internalType": "string",
              "name": "dimensions",
              "type": "string"
            }
          ],
          "internalType": "struct Product.Item[]",
          "name": "",
          "type": "tuple[]"
        }
      ],
      "stateMutability": "view",
      "type": "function",
      "constant": true
    },
    {
      "inputs": [
        {
          "internalType": "uint256",
          "name": "_id",
          "type": "uint256"
        },
        {
          "internalType": "string",
          "name": "_title",
          "type": "string"
        },
        {
          "components": [
            {
              "internalType": "string",
              "name": "name",
              "type": "string"
            },
            {
              "internalType": "bool",
              "name": "isVerified",
              "type": "bool"
            }
          ],
          "internalType": "struct Product.RawProduct[]",
          "name": "_rawProducts",
          "type": "tuple[]"
        },
        {
          "internalType": "string",
          "name": "_material",
          "type": "string"
        },
        {
          "internalType": "string",
          "name": "_status",
          "type": "string"
        },
        {
          "internalType": "string",
          "name": "_tempStatus",
          "type": "string"
        },
        {
          "internalType": "string",
          "name": "_longStatus",
          "type": "string"
        },
        {
          "internalType": "string",
          "name": "_radioactivityLevel",
          "type": "string"
        },
        {
          "internalType": "string",
          "name": "_dimensions",
          "type": "string"
        }
      ],
      "name": "add",
      "outputs": [
        {
          "internalType": "bool",
          "name": "",
          "type": "bool"
        }
      ],
      "stateMutability": "nonpayable",
      "type": "function"
    },
    {
      "inputs": [
        {
          "internalType": "uint256",
          "name": "_id",
          "type": "uint256"
        }
      ],
      "name": "get",
      "outputs": [
        {
          "components": [
            {
              "internalType": "uint256",
              "name": "id",
              "type": "uint256"
            },
            {
              "internalType": "string",
              "name": "title",
              "type": "string"
            },
            {
              "internalType": "address",
              "name": "manufacturer",
              "type": "address"
            },
            {
              "internalType": "address",
              "name": "currentOwner",
              "type": "address"
            },
            {
              "internalType": "address",
              "name": "lastOwner",
              "type": "address"
            },
            {
              "internalType": "uint256",
              "name": "launchDate",
              "type": "uint256"
            },
            {
              "internalType": "string",
              "name": "material",
              "type": "string"
            },
            {
              "internalType": "string",
              "name": "status",
              "type": "string"
            },
            {
              "internalType": "string",
              "name": "tempStatus",
              "type": "string"
            },
            {
              "internalType": "string",
              "name": "longStatus",
              "type": "string"
            },
            {
              "internalType": "string",
              "name": "radioactivityLevel",
              "type": "string"
            },
            {
              "internalType": "string",
              "name": "dimensions",
              "type": "string"
            }
          ],
          "internalType": "struct Product.Item",
          "name": "item",
          "type": "tuple"
        },
        {
          "components": [
            {
              "internalType": "uint256",
              "name": "txId",
              "type": "uint256"
            },
            {
              "internalType": "address",
              "name": "from",
              "type": "address"
            },
            {
              "internalType": "address",
              "name": "to",
              "type": "address"
            },
            {
              "internalType": "uint256",
              "name": "date",
              "type": "uint256"
            }
          ],
          "internalType": "struct Product.Transaction[]",
          "name": "transactions",
          "type": "tuple[]"
        },
        {
          "components": [
            {
              "internalType": "string",
              "name": "name",
              "type": "string"
            },
            {
              "internalType": "bool",
              "name": "isVerified",
              "type": "bool"
            }
          ],
          "internalType": "struct Product.RawProduct[]",
          "name": "rawProducts",
          "type": "tuple[]"
        }
      ],
      "stateMutability": "view",
      "type": "function",
      "constant": true
    },
    {
      "inputs": [
        {
          "internalType": "address",
          "name": "_to",
          "type": "address"
        },
        {
          "internalType": "uint256",
          "name": "_id",
          "type": "uint256"
        }
      ],
      "name": "transfer",
      "outputs": [
        {
          "internalType": "bool",
          "name": "",
          "type": "bool"
        }
      ],
      "stateMutability": "nonpayable",
      "type": "function"
    },
    {
      "inputs": [
        {
          "internalType": "uint256",
          "name": "_id",
          "type": "uint256"
        },
        {
          "internalType": "string",
          "name": "newStatus",
          "type": "string"
        }
      ],
      "name": "updateStatusTemporary",
      "outputs": [
        {
          "internalType": "bool",
          "name": "",
          "type": "bool"
        }
      ],
      "stateMutability": "nonpayable",
      "type": "function"
    },
    {
      "inputs": [
        {
          "internalType": "uint256",
          "name": "_id",
          "type": "uint256"
        },
        {
          "internalType": "string",
          "name": "neStatus",
          "type": "string"
        }
      ],
      "name": "updateStatusLongterm",
      "outputs": [
        {
          "internalType": "bool",
          "name": "",
          "type": "bool"
        }
      ],
      "stateMutability": "nonpayable",
      "type": "function"
    },
    {
      "inputs": [
        {
          "internalType": "uint256",
          "name": "_productId",
          "type": "uint256"
        }
      ],
      "name": "getTransactionsByProductId",
      "outputs": [
        {
          "components": [
            {
              "internalType": "uint256",
              "name": "txId",
              "type": "uint256"
            },
            {
              "internalType": "address",
              "name": "from",
              "type": "address"
            },
            {
              "internalType": "address",
              "name": "to",
              "type": "address"
            },
            {
              "internalType": "uint256",
              "name": "date",
              "type": "uint256"
            }
          ],
          "internalType": "struct Product.Transaction[]",
          "name": "",
          "type": "tuple[]"
        }
      ],
      "stateMutability": "view",
      "type": "function",
      "constant": true
    },
    {
      "inputs": [],
      "name": "getItemIds",
      "outputs": [
        {
          "internalType": "uint256[]",
          "name": "",
          "type": "uint256[]"
        }
      ],
      "stateMutability": "view",
      "type": "function",
      "constant": true
    },
    {
      "inputs": [],
      "name": "getProductsCount",
      "outputs": [
        {
          "internalType": "uint256",
          "name": "",
          "type": "uint256"
        }
      ],
      "stateMutability": "view",
      "type": "function",
      "constant": true
    },
    {
      "inputs": [],
      "name": "getTransactionsCount",
      "outputs": [
        {
          "internalType": "uint256",
          "name": "",
          "type": "uint256"
        }
      ],
      "stateMutability": "view",
      "type": "function",
      "constant": true
    }
  ],
  "bytecode": "0x608060405234801561001057600080fd5b506000600581905550613b85806100286000396000f3fe608060405234801561001057600080fd5b50600436106100b45760003560e01c806375c382951161007157806375c38295146101c05780639507d39a146101f0578063a9059cbb14610222578063cda4bf8014610252578063ef0614b914610282578063f8e7284a146102a0576100b4565b80630fecef48146100b957806344029410146100e957806351e450ce146101245780635786fd4014610154578063578cb8f914610172578063716ae61c14610190575b600080fd5b6100d360048036038101906100ce9190612a78565b6102d0565b6040516100e09190613516565b60405180910390f35b61010360048036038101906100fe9190612add565b610ad7565b60405161011b9c9b9a999897969594939291906136de565b60405180910390f35b61013e60048036038101906101399190612b06565b610f4f565b60405161014b919061357c565b60405180910390f35b61015c611116565b60405161016991906136c3565b60405180910390f35b61017a611122565b60405161018791906136c3565b60405180910390f35b6101aa60048036038101906101a59190612add565b61112c565b6040516101b79190613538565b60405180910390f35b6101da60048036038101906101d59190612b5a565b61140d565b6040516101e7919061357c565b60405180910390f35b61020a60048036038101906102059190612add565b6117fd565b60405161021993929190613677565b60405180910390f35b61023c60048036038101906102379190612aa1565b61209a565b604051610249919061357c565b60405180910390f35b61026c60048036038101906102679190612b06565b612509565b604051610279919061357c565b60405180910390f35b61028a6126d0565b604051610297919061355a565b60405180910390f35b6102ba60048036038101906102b59190612add565b612728565b6040516102c791906136c3565b60405180910390f35b60606000805b6000805490508110156103b2578373ffffffffffffffffffffffffffffffffffffffff1660016000808481548110610337577f4e487b7100000000000000000000000000000000000000000000000000000000600052603260045260246000fd5b9060005260206000200154815260200190815260200160002060030160009054906101000a900473ffffffffffffffffffffffffffffffffffffffff1673ffffffffffffffffffffffffffffffffffffffff16141561039f57818061039b90613a23565b9250505b80806103aa90613a23565b9150506102d6565b5060008167ffffffffffffffff8111156103f5577f4e487b7100000000000000000000000000000000000000000000000000000000600052604160045260246000fd5b60405190808252806020026020018201604052801561042e57816020015b61041b61274c565b8152602001906001900390816104135790505b5090506000805b600080549050811015610acb578573ffffffffffffffffffffffffffffffffffffffff1660016000808481548110610496577f4e487b7100000000000000000000000000000000000000000000000000000000600052603260045260246000fd5b9060005260206000200154815260200190815260200160002060030160009054906101000a900473ffffffffffffffffffffffffffffffffffffffff1673ffffffffffffffffffffffffffffffffffffffff161415610ab8576001600080838154811061052c577f4e487b7100000000000000000000000000000000000000000000000000000000600052603260045260246000fd5b90600052602060002001548152602001908152602001600020604051806101800160405290816000820154815260200160018201805461056b906139f1565b80601f0160208091040260200160405190810160405280929190818152602001828054610597906139f1565b80156105e45780601f106105b9576101008083540402835291602001916105e4565b820191906000526020600020905b8154815290600101906020018083116105c757829003601f168201915b505050505081526020016002820160009054906101000a900473ffffffffffffffffffffffffffffffffffffffff1673ffffffffffffffffffffffffffffffffffffffff1673ffffffffffffffffffffffffffffffffffffffff1681526020016003820160009054906101000a900473ffffffffffffffffffffffffffffffffffffffff1673ffffffffffffffffffffffffffffffffffffffff1673ffffffffffffffffffffffffffffffffffffffff1681526020016004820160009054906101000a900473ffffffffffffffffffffffffffffffffffffffff1673ffffffffffffffffffffffffffffffffffffffff1673ffffffffffffffffffffffffffffffffffffffff16815260200160058201548152602001600682018054610709906139f1565b80601f0160208091040260200160405190810160405280929190818152602001828054610735906139f1565b80156107825780601f1061075757610100808354040283529160200191610782565b820191906000526020600020905b81548152906001019060200180831161076557829003601f168201915b5050505050815260200160078201805461079b906139f1565b80601f01602080910402602001604051908101604052809291908181526020018280546107c7906139f1565b80156108145780601f106107e957610100808354040283529160200191610814565b820191906000526020600020905b8154815290600101906020018083116107f757829003601f168201915b5050505050815260200160088201805461082d906139f1565b80601f0160208091040260200160405190810160405280929190818152602001828054610859906139f1565b80156108a65780601f1061087b576101008083540402835291602001916108a6565b820191906000526020600020905b81548152906001019060200180831161088957829003601f168201915b505050505081526020016009820180546108bf906139f1565b80601f01602080910402602001604051908101604052809291908181526020018280546108eb906139f1565b80156109385780601f1061090d57610100808354040283529160200191610938565b820191906000526020600020905b81548152906001019060200180831161091b57829003601f168201915b50505050508152602001600a82018054610951906139f1565b80601f016020809104026020016040519081016040528092919081815260200182805461097d906139f1565b80156109ca5780601f1061099f576101008083540402835291602001916109ca565b820191906000526020600020905b8154815290600101906020018083116109ad57829003601f168201915b50505050508152602001600b820180546109e3906139f1565b80601f0160208091040260200160405190810160405280929190818152602001828054610a0f906139f1565b8015610a5c5780601f10610a3157610100808354040283529160200191610a5c565b820191906000526020600020905b815481529060010190602001808311610a3f57829003601f168201915b505050505081525050838381518110610a9e577f4e487b7100000000000000000000000000000000000000000000000000000000600052603260045260246000fd5b60200260200101819052508180610ab490613a23565b9250505b8080610ac390613a23565b915050610435565b50819350505050919050565b6001602052806000526040600020600091509050806000015490806001018054610b00906139f1565b80601f0160208091040260200160405190810160405280929190818152602001828054610b2c906139f1565b8015610b795780601f10610b4e57610100808354040283529160200191610b79565b820191906000526020600020905b815481529060010190602001808311610b5c57829003601f168201915b5050505050908060020160009054906101000a900473ffffffffffffffffffffffffffffffffffffffff16908060030160009054906101000a900473ffffffffffffffffffffffffffffffffffffffff16908060040160009054906101000a900473ffffffffffffffffffffffffffffffffffffffff1690806005015490806006018054610c06906139f1565b80601f0160208091040260200160405190810160405280929190818152602001828054610c32906139f1565b8015610c7f5780601f10610c5457610100808354040283529160200191610c7f565b820191906000526020600020905b815481529060010190602001808311610c6257829003601f168201915b505050505090806007018054610c94906139f1565b80601f0160208091040260200160405190810160405280929190818152602001828054610cc0906139f1565b8015610d0d5780601f10610ce257610100808354040283529160200191610d0d565b820191906000526020600020905b815481529060010190602001808311610cf057829003601f168201915b505050505090806008018054610d22906139f1565b80601f0160208091040260200160405190810160405280929190818152602001828054610d4e906139f1565b8015610d9b5780601f10610d7057610100808354040283529160200191610d9b565b820191906000526020600020905b815481529060010190602001808311610d7e57829003601f168201915b505050505090806009018054610db0906139f1565b80601f0160208091040260200160405190810160405280929190818152602001828054610ddc906139f1565b8015610e295780601f10610dfe57610100808354040283529160200191610e29565b820191906000526020600020905b815481529060010190602001808311610e0c57829003601f168201915b50505050509080600a018054610e3e906139f1565b80601f0160208091040260200160405190810160405280929190818152602001828054610e6a906139f1565b8015610eb75780601f10610e8c57610100808354040283529160200191610eb7565b820191906000526020600020905b815481529060010190602001808311610e9a57829003601f168201915b50505050509080600b018054610ecc906139f1565b80601f0160208091040260200160405190810160405280929190818152602001828054610ef8906139f1565b8015610f455780601f10610f1a57610100808354040283529160200191610f45565b820191906000526020600020905b815481529060010190602001808311610f2857829003601f168201915b505050505090508c565b600082600073ffffffffffffffffffffffffffffffffffffffff166001600083815260200190815260200160002060020160009054906101000a900473ffffffffffffffffffffffffffffffffffffffff1673ffffffffffffffffffffffffffffffffffffffff161415610ff8576040517f08c379a0000000000000000000000000000000000000000000000000000000008152600401610fef90613597565b60405180910390fd5b3373ffffffffffffffffffffffffffffffffffffffff166001600086815260200190815260200160002060030160009054906101000a900473ffffffffffffffffffffffffffffffffffffffff1673ffffffffffffffffffffffffffffffffffffffff161461109c576040517f08c379a000000000000000000000000000000000000000000000000000000000815260040161109390613637565b60405180910390fd5b60008351116110e0576040517f08c379a00000000000000000000000000000000000000000000000000000000081526004016110d790613617565b60405180910390fd5b8260016000868152602001908152602001600020600801908051906020019061110a9291906127ef565b50600191505092915050565b60008080549050905090565b6000600554905090565b6060600073ffffffffffffffffffffffffffffffffffffffff166001600084815260200190815260200160002060020160009054906101000a900473ffffffffffffffffffffffffffffffffffffffff1673ffffffffffffffffffffffffffffffffffffffff1614156111d4576040517f08c379a00000000000000000000000000000000000000000000000000000000081526004016111cb90613597565b60405180910390fd5b60006003600084815260200190815260200160002080549050905060008167ffffffffffffffff811115611231577f4e487b7100000000000000000000000000000000000000000000000000000000600052604160045260246000fd5b60405190808252806020026020018201604052801561126a57816020015b611257612875565b81526020019060019003908161124f5790505b50905060005b8281101561140257600260006003600088815260200190815260200160002083815481106112c7577f4e487b7100000000000000000000000000000000000000000000000000000000600052603260045260246000fd5b90600052602060002001548152602001908152602001600020604051806080016040529081600082015481526020016001820160009054906101000a900473ffffffffffffffffffffffffffffffffffffffff1673ffffffffffffffffffffffffffffffffffffffff1673ffffffffffffffffffffffffffffffffffffffff1681526020016002820160009054906101000a900473ffffffffffffffffffffffffffffffffffffffff1673ffffffffffffffffffffffffffffffffffffffff1673ffffffffffffffffffffffffffffffffffffffff1681526020016003820154815250508282815181106113e4577f4e487b7100000000000000000000000000000000000000000000000000000000600052603260045260246000fd5b602002602001018190525080806113fa90613a23565b915050611270565b508092505050919050565b600080339050600073ffffffffffffffffffffffffffffffffffffffff168173ffffffffffffffffffffffffffffffffffffffff161415611483576040517f08c379a000000000000000000000000000000000000000000000000000000000815260040161147a906135f7565b60405180910390fd5b6040518061018001604052808c81526020018b81526020018273ffffffffffffffffffffffffffffffffffffffff1681526020018273ffffffffffffffffffffffffffffffffffffffff168152602001600073ffffffffffffffffffffffffffffffffffffffff16815260200142815260200189815260200188815260200187815260200186815260200185815260200184815250600160008d81526020019081526020016000206000820151816000015560208201518160010190805190602001906115519291906127ef565b5060408201518160020160006101000a81548173ffffffffffffffffffffffffffffffffffffffff021916908373ffffffffffffffffffffffffffffffffffffffff16021790555060608201518160030160006101000a81548173ffffffffffffffffffffffffffffffffffffffff021916908373ffffffffffffffffffffffffffffffffffffffff16021790555060808201518160040160006101000a81548173ffffffffffffffffffffffffffffffffffffffff021916908373ffffffffffffffffffffffffffffffffffffffff16021790555060a0820151816005015560c082015181600601908051906020019061164d9291906127ef565b5060e082015181600701908051906020019061166a9291906127ef565b506101008201518160080190805190602001906116889291906127ef565b506101208201518160090190805190602001906116a69291906127ef565b5061014082015181600a0190805190602001906116c49291906127ef565b5061016082015181600b0190805190602001906116e29291906127ef565b5090505060005b89518110156117c157600460008d81526020019081526020016000208a828151811061173e577f4e487b7100000000000000000000000000000000000000000000000000000000600052603260045260246000fd5b60200260200101519080600181540180825580915050600190039060005260206000209060020201600090919091909150600082015181600001908051906020019061178b9291906127ef565b5060208201518160010160006101000a81548160ff021916908315150217905550505080806117b990613a23565b9150506116e9565b5060008b908060018154018082558091505060019003906000526020600020016000909190919091505560019150509998505050505050505050565b61180561274c565b606080600160008581526020019081526020016000206040518061018001604052908160008201548152602001600182018054611841906139f1565b80601f016020809104026020016040519081016040528092919081815260200182805461186d906139f1565b80156118ba5780601f1061188f576101008083540402835291602001916118ba565b820191906000526020600020905b81548152906001019060200180831161189d57829003601f168201915b505050505081526020016002820160009054906101000a900473ffffffffffffffffffffffffffffffffffffffff1673ffffffffffffffffffffffffffffffffffffffff1673ffffffffffffffffffffffffffffffffffffffff1681526020016003820160009054906101000a900473ffffffffffffffffffffffffffffffffffffffff1673ffffffffffffffffffffffffffffffffffffffff1673ffffffffffffffffffffffffffffffffffffffff1681526020016004820160009054906101000a900473ffffffffffffffffffffffffffffffffffffffff1673ffffffffffffffffffffffffffffffffffffffff1673ffffffffffffffffffffffffffffffffffffffff168152602001600582015481526020016006820180546119df906139f1565b80601f0160208091040260200160405190810160405280929190818152602001828054611a0b906139f1565b8015611a585780601f10611a2d57610100808354040283529160200191611a58565b820191906000526020600020905b815481529060010190602001808311611a3b57829003601f168201915b50505050508152602001600782018054611a71906139f1565b80601f0160208091040260200160405190810160405280929190818152602001828054611a9d906139f1565b8015611aea5780601f10611abf57610100808354040283529160200191611aea565b820191906000526020600020905b815481529060010190602001808311611acd57829003601f168201915b50505050508152602001600882018054611b03906139f1565b80601f0160208091040260200160405190810160405280929190818152602001828054611b2f906139f1565b8015611b7c5780601f10611b5157610100808354040283529160200191611b7c565b820191906000526020600020905b815481529060010190602001808311611b5f57829003601f168201915b50505050508152602001600982018054611b95906139f1565b80601f0160208091040260200160405190810160405280929190818152602001828054611bc1906139f1565b8015611c0e5780601f10611be357610100808354040283529160200191611c0e565b820191906000526020600020905b815481529060010190602001808311611bf157829003601f168201915b50505050508152602001600a82018054611c27906139f1565b80601f0160208091040260200160405190810160405280929190818152602001828054611c53906139f1565b8015611ca05780601f10611c7557610100808354040283529160200191611ca0565b820191906000526020600020905b815481529060010190602001808311611c8357829003601f168201915b50505050508152602001600b82018054611cb9906139f1565b80601f0160208091040260200160405190810160405280929190818152602001828054611ce5906139f1565b8015611d325780601f10611d0757610100808354040283529160200191611d32565b820191906000526020600020905b815481529060010190602001808311611d1557829003601f168201915b5050505050815250509250600360008581526020019081526020016000208054905067ffffffffffffffff811115611d93577f4e487b7100000000000000000000000000000000000000000000000000000000600052604160045260246000fd5b604051908082528060200260200182016040528015611dcc57816020015b611db9612875565b815260200190600190039081611db15790505b50915060005b6003600086815260200190815260200160002080549050811015611f7a5760026000600360008881526020019081526020016000208381548110611e3f577f4e487b7100000000000000000000000000000000000000000000000000000000600052603260045260246000fd5b90600052602060002001548152602001908152602001600020604051806080016040529081600082015481526020016001820160009054906101000a900473ffffffffffffffffffffffffffffffffffffffff1673ffffffffffffffffffffffffffffffffffffffff1673ffffffffffffffffffffffffffffffffffffffff1681526020016002820160009054906101000a900473ffffffffffffffffffffffffffffffffffffffff1673ffffffffffffffffffffffffffffffffffffffff1673ffffffffffffffffffffffffffffffffffffffff168152602001600382015481525050838281518110611f5c577f4e487b7100000000000000000000000000000000000000000000000000000000600052603260045260246000fd5b60200260200101819052508080611f7290613a23565b915050611dd2565b5060046000858152602001908152602001600020805480602002602001604051908101604052809291908181526020016000905b8282101561208d5783829060005260206000209060020201604051806040016040529081600082018054611fe1906139f1565b80601f016020809104026020016040519081016040528092919081815260200182805461200d906139f1565b801561205a5780601f1061202f5761010080835404028352916020019161205a565b820191906000526020600020905b81548152906001019060200180831161203d57829003601f168201915b505050505081526020016001820160009054906101000a900460ff16151515158152505081526020019060010190611fae565b5050505090509193909250565b60008073ffffffffffffffffffffffffffffffffffffffff166001600084815260200190815260200160002060030160009054906101000a900473ffffffffffffffffffffffffffffffffffffffff1673ffffffffffffffffffffffffffffffffffffffff161415612141576040517f08c379a0000000000000000000000000000000000000000000000000000000008152600401612138906135b7565b60405180910390fd5b8273ffffffffffffffffffffffffffffffffffffffff166001600084815260200190815260200160002060030160009054906101000a900473ffffffffffffffffffffffffffffffffffffffff1673ffffffffffffffffffffffffffffffffffffffff1614156121e6576040517f08c379a00000000000000000000000000000000000000000000000000000000081526004016121dd906135d7565b60405180910390fd5b600073ffffffffffffffffffffffffffffffffffffffff168373ffffffffffffffffffffffffffffffffffffffff161415612256576040517f08c379a000000000000000000000000000000000000000000000000000000000815260040161224d90613657565b60405180910390fd5b6001600083815260200190815260200160002060030160009054906101000a900473ffffffffffffffffffffffffffffffffffffffff166001600084815260200190815260200160002060040160006101000a81548173ffffffffffffffffffffffffffffffffffffffff021916908373ffffffffffffffffffffffffffffffffffffffff160217905550826001600084815260200190815260200160002060030160006101000a81548173ffffffffffffffffffffffffffffffffffffffff021916908373ffffffffffffffffffffffffffffffffffffffff160217905550604051806080016040528060055481526020016001600085815260200190815260200160002060040160009054906101000a900473ffffffffffffffffffffffffffffffffffffffff1673ffffffffffffffffffffffffffffffffffffffff1681526020016001600085815260200190815260200160002060030160009054906101000a900473ffffffffffffffffffffffffffffffffffffffff1673ffffffffffffffffffffffffffffffffffffffff168152602001428152506002600060055481526020019081526020016000206000820151816000015560208201518160010160006101000a81548173ffffffffffffffffffffffffffffffffffffffff021916908373ffffffffffffffffffffffffffffffffffffffff16021790555060408201518160020160006101000a81548173ffffffffffffffffffffffffffffffffffffffff021916908373ffffffffffffffffffffffffffffffffffffffff16021790555060608201518160030155905050600360008381526020019081526020016000206005549080600181540180825580915050600190039060005260206000200160009091909190915055600560008154809291906124fa90613a23565b91905055506001905092915050565b600082600073ffffffffffffffffffffffffffffffffffffffff166001600083815260200190815260200160002060020160009054906101000a900473ffffffffffffffffffffffffffffffffffffffff1673ffffffffffffffffffffffffffffffffffffffff1614156125b2576040517f08c379a00000000000000000000000000000000000000000000000000000000081526004016125a990613597565b60405180910390fd5b3373ffffffffffffffffffffffffffffffffffffffff166001600086815260200190815260200160002060030160009054906101000a900473ffffffffffffffffffffffffffffffffffffffff1673ffffffffffffffffffffffffffffffffffffffff1614612656576040517f08c379a000000000000000000000000000000000000000000000000000000000815260040161264d90613637565b60405180910390fd5b600083511161269a576040517f08c379a000000000000000000000000000000000000000000000000000000000815260040161269190613617565b60405180910390fd5b826001600086815260200190815260200160002060090190805190602001906126c49291906127ef565b50600191505092915050565b6060600080548060200260200160405190810160405280929190818152602001828054801561271e57602002820191906000526020600020905b81548152602001906001019080831161270a575b5050505050905090565b6000818154811061273857600080fd5b906000526020600020016000915090505481565b6040518061018001604052806000815260200160608152602001600073ffffffffffffffffffffffffffffffffffffffff168152602001600073ffffffffffffffffffffffffffffffffffffffff168152602001600073ffffffffffffffffffffffffffffffffffffffff168152602001600081526020016060815260200160608152602001606081526020016060815260200160608152602001606081525090565b8280546127fb906139f1565b90600052602060002090601f01602090048101928261281d5760008555612864565b82601f1061283657805160ff1916838001178555612864565b82800160010185558215612864579182015b82811115612863578251825591602001919060010190612848565b5b50905061287191906128c9565b5090565b604051806080016040528060008152602001600073ffffffffffffffffffffffffffffffffffffffff168152602001600073ffffffffffffffffffffffffffffffffffffffff168152602001600081525090565b5b808211156128e25760008160009055506001016128ca565b5090565b60006128f96128f4846137fa565b6137c9565b9050808382526020820190508260005b85811015612939578135850161291f88826129ff565b845260208401935060208301925050600181019050612909565b5050509392505050565b600061295661295184613826565b6137c9565b90508281526020810184848401111561296e57600080fd5b6129798482856139af565b509392505050565b60008135905061299081613b0a565b92915050565b600082601f8301126129a757600080fd5b81356129b78482602086016128e6565b91505092915050565b6000813590506129cf81613b21565b92915050565b600082601f8301126129e657600080fd5b81356129f6848260208601612943565b91505092915050565b600060408284031215612a1157600080fd5b612a1b60406137c9565b9050600082013567ffffffffffffffff811115612a3757600080fd5b612a43848285016129d5565b6000830152506020612a57848285016129c0565b60208301525092915050565b600081359050612a7281613b38565b92915050565b600060208284031215612a8a57600080fd5b6000612a9884828501612981565b91505092915050565b60008060408385031215612ab457600080fd5b6000612ac285828601612981565b9250506020612ad385828601612a63565b9150509250929050565b600060208284031215612aef57600080fd5b6000612afd84828501612a63565b91505092915050565b60008060408385031215612b1957600080fd5b6000612b2785828601612a63565b925050602083013567ffffffffffffffff811115612b4457600080fd5b612b50858286016129d5565b9150509250929050565b60008060008060008060008060006101208a8c031215612b7957600080fd5b6000612b878c828d01612a63565b99505060208a013567ffffffffffffffff811115612ba457600080fd5b612bb08c828d016129d5565b98505060408a013567ffffffffffffffff811115612bcd57600080fd5b612bd98c828d01612996565b97505060608a013567ffffffffffffffff811115612bf657600080fd5b612c028c828d016129d5565b96505060808a013567ffffffffffffffff811115612c1f57600080fd5b612c2b8c828d016129d5565b95505060a08a013567ffffffffffffffff811115612c4857600080fd5b612c548c828d016129d5565b94505060c08a013567ffffffffffffffff811115612c7157600080fd5b612c7d8c828d016129d5565b93505060e08a013567ffffffffffffffff811115612c9a57600080fd5b612ca68c828d016129d5565b9250506101008a013567ffffffffffffffff811115612cc457600080fd5b612cd08c828d016129d5565b9150509295985092959850929598565b6000612cec838361320a565b905092915050565b6000612d008383613466565b905092915050565b6000612d1483836134a3565b60808301905092915050565b6000612d2c83836134f8565b60208301905092915050565b612d4181613967565b82525050565b612d5081613967565b82525050565b6000612d6182613896565b612d6b8185613901565b935083602082028501612d7d85613856565b8060005b85811015612db95784840389528151612d9a8582612ce0565b9450612da5836138cd565b925060208a01995050600181019050612d81565b50829750879550505050505092915050565b6000612dd6826138a1565b612de08185613912565b935083602082028501612df285613866565b8060005b85811015612e2e5784840389528151612e0f8582612cf4565b9450612e1a836138da565b925060208a01995050600181019050612df6565b50829750879550505050505092915050565b6000612e4b826138ac565b612e558185613923565b9350612e6083613876565b8060005b83811015612e91578151612e788882612d08565b9750612e83836138e7565b925050600181019050612e64565b5085935050505092915050565b6000612ea9826138b7565b612eb38185613934565b9350612ebe83613886565b8060005b83811015612eef578151612ed68882612d20565b9750612ee1836138f4565b925050600181019050612ec2565b5085935050505092915050565b612f0581613979565b82525050565b612f1481613979565b82525050565b6000612f25826138c2565b612f2f8185613945565b9350612f3f8185602086016139be565b612f4881613af9565b840191505092915050565b6000612f5e826138c2565b612f688185613956565b9350612f788185602086016139be565b612f8181613af9565b840191505092915050565b6000612f99601683613956565b91507f50726f6475637420646f6573206e6f74206578697374000000000000000000006000830152602082019050919050565b6000612fd9602983613956565b91507f50726f647563743a3a7472616e736665723a2050726f6475637420646f65732060008301527f6e6f7420657869737400000000000000000000000000000000000000000000006020830152604082019050919050565b600061303f602a83613956565b91507f50726f647563743a3a7472616e736665723a2043616e6e6f74207472616e736660008301527f657220746f2073656c66000000000000000000000000000000000000000000006020830152604082019050919050565b60006130a5602983613956565b91507f50726f647563743a3a6164643a204d616e7566616374757265722063616e6e6f60008301527f74206265206e756c6c00000000000000000000000000000000000000000000006020830152604082019050919050565b600061310b601683613956565b91507f5374617475732063616e6e6f7420626520656d707479000000000000000000006000830152602082019050919050565b600061314b602c83613956565b91507f4f6e6c79207468652063757272656e74206f776e65722063616e20757064617460008301527f65207468652073746174757300000000000000000000000000000000000000006020830152604082019050919050565b60006131b1603283613956565b91507f50726f647563743a3a7472616e736665723a2043616e6e6f74207472616e736660008301527f657220746f206e756c6c206164647265737300000000000000000000000000006020830152604082019050919050565b60006101808301600083015161322360008601826134f8565b506020830151848203602086015261323b8282612f1a565b91505060408301516132506040860182612d38565b5060608301516132636060860182612d38565b5060808301516132766080860182612d38565b5060a083015161328960a08601826134f8565b5060c083015184820360c08601526132a18282612f1a565b91505060e083015184820360e08601526132bb8282612f1a565b9150506101008301518482036101008601526132d78282612f1a565b9150506101208301518482036101208601526132f38282612f1a565b91505061014083015184820361014086015261330f8282612f1a565b91505061016083015184820361016086015261332b8282612f1a565b9150508091505092915050565b60006101808301600083015161335160008601826134f8565b50602083015184820360208601526133698282612f1a565b915050604083015161337e6040860182612d38565b5060608301516133916060860182612d38565b5060808301516133a46080860182612d38565b5060a08301516133b760a08601826134f8565b5060c083015184820360c08601526133cf8282612f1a565b91505060e083015184820360e08601526133e98282612f1a565b9150506101008301518482036101008601526134058282612f1a565b9150506101208301518482036101208601526134218282612f1a565b91505061014083015184820361014086015261343d8282612f1a565b9150506101608301518482036101608601526134598282612f1a565b9150508091505092915050565b600060408301600083015184820360008601526134838282612f1a565b91505060208301516134986020860182612efc565b508091505092915050565b6080820160008201516134b960008501826134f8565b5060208201516134cc6020850182612d38565b5060408201516134df6040850182612d38565b5060608201516134f260608501826134f8565b50505050565b613501816139a5565b82525050565b613510816139a5565b82525050565b600060208201905081810360008301526135308184612d56565b905092915050565b600060208201905081810360008301526135528184612e40565b905092915050565b600060208201905081810360008301526135748184612e9e565b905092915050565b60006020820190506135916000830184612f0b565b92915050565b600060208201905081810360008301526135b081612f8c565b9050919050565b600060208201905081810360008301526135d081612fcc565b9050919050565b600060208201905081810360008301526135f081613032565b9050919050565b6000602082019050818103600083015261361081613098565b9050919050565b60006020820190508181036000830152613630816130fe565b9050919050565b600060208201905081810360008301526136508161313e565b9050919050565b60006020820190508181036000830152613670816131a4565b9050919050565b600060608201905081810360008301526136918186613338565b905081810360208301526136a58185612e40565b905081810360408301526136b98184612dcb565b9050949350505050565b60006020820190506136d86000830184613507565b92915050565b6000610180820190506136f4600083018f613507565b8181036020830152613706818e612f53565b9050613715604083018d612d47565b613722606083018c612d47565b61372f608083018b612d47565b61373c60a083018a613507565b81810360c083015261374e8189612f53565b905081810360e08301526137628188612f53565b90508181036101008301526137778187612f53565b905081810361012083015261378c8186612f53565b90508181036101408301526137a18185612f53565b90508181036101608301526137b68184612f53565b90509d9c50505050505050505050505050565b6000604051905081810181811067ffffffffffffffff821117156137f0576137ef613aca565b5b8060405250919050565b600067ffffffffffffffff82111561381557613814613aca565b5b602082029050602081019050919050565b600067ffffffffffffffff82111561384157613840613aca565b5b601f19601f8301169050602081019050919050565b6000819050602082019050919050565b6000819050602082019050919050565b6000819050602082019050919050565b6000819050602082019050919050565b600081519050919050565b600081519050919050565b600081519050919050565b600081519050919050565b600081519050919050565b6000602082019050919050565b6000602082019050919050565b6000602082019050919050565b6000602082019050919050565b600082825260208201905092915050565b600082825260208201905092915050565b600082825260208201905092915050565b600082825260208201905092915050565b600082825260208201905092915050565b600082825260208201905092915050565b600061397282613985565b9050919050565b60008115159050919050565b600073ffffffffffffffffffffffffffffffffffffffff82169050919050565b6000819050919050565b82818337600083830152505050565b60005b838110156139dc5780820151818401526020810190506139c1565b838111156139eb576000848401525b50505050565b60006002820490506001821680613a0957607f821691505b60208210811415613a1d57613a1c613a9b565b5b50919050565b6000613a2e826139a5565b91507fffffffffffffffffffffffffffffffffffffffffffffffffffffffffffffffff821415613a6157613a60613a6c565b5b600182019050919050565b7f4e487b7100000000000000000000000000000000000000000000000000000000600052601160045260246000fd5b7f4e487b7100000000000000000000000000000000000000000000000000000000600052602260045260246000fd5b7f4e487b7100000000000000000000000000000000000000000000000000000000600052604160045260246000fd5b6000601f19601f8301169050919050565b613b1381613967565b8114613b1e57600080fd5b50565b613b2a81613979565b8114613b3557600080fd5b50565b613b41816139a5565b8114613b4c57600080fd5b5056fea264697066735822122019a9e0c3be9c9eba7dba29b50dc716c9c2d6ab63315bd94a963494894cb1771164736f6c63430008000033",
  "immutableReferences": {},
  "source": "// SPDX-License-Identifier: MIT\r\npragma solidity ^0.8.0;\r\ncontract Product {\r\n    struct Transaction {\r\n        uint256 txId;\r\n        address from;\r\n        address to;\r\n        uint date;\r\n    }\r\n\r\n    struct RawProduct {\r\n        string name;\r\n        bool isVerified;\r\n    }\r\n\r\n    struct Item {\r\n        uint256 id;\r\n        string title;\r\n        address manufacturer;\r\n        address currentOwner;\r\n        address lastOwner;\r\n        uint launchDate;\r\n        string material;\r\n        string status;\r\n        string tempStatus;\r\n        string longStatus;\r\n        string radioactivityLevel;\r\n        string dimensions;\r\n    }\r\n\r\n    uint256[] public _itemIds;\r\n    mapping(uint256 => Item) public _items;\r\n    mapping(uint256 => Transaction) _transactions;\r\n    mapping(uint256 => uint256[]) _itemTransactions;\r\n    mapping(uint256 => RawProduct[]) _itemRawProducts;\r\n\r\n    uint256 _nextTransactionId;\r\n\r\n    constructor() {\r\n        _nextTransactionId = 0;\r\n    }\r\n\r\n    modifier itemExists(uint256 _id) {\r\n        require(\r\n            _items[_id].manufacturer != address(0),\r\n            \"Product does not exist\"\r\n        );\r\n        _;\r\n    }\r\n\r\n    function getProductsByOwner(\r\n        address owner\r\n    ) public view returns (Item[] memory) {\r\n        uint256 productCount = 0;\r\n\r\n        for (uint256 i = 0; i < _itemIds.length; i++) {\r\n            if (_items[_itemIds[i]].currentOwner == owner) {\r\n                productCount++;\r\n            }\r\n        }\r\n\r\n        Item[] memory ownedProducts = new Item[](productCount);\r\n        uint256 counter = 0;\r\n\r\n        for (uint256 i = 0; i < _itemIds.length; i++) {\r\n            if (_items[_itemIds[i]].currentOwner == owner) {\r\n                ownedProducts[counter] = _items[_itemIds[i]];\r\n                counter++;\r\n            }\r\n        }\r\n\r\n        return ownedProducts;\r\n    }\r\n\r\n    function add(\r\n        uint256 _id,\r\n        string memory _title,\r\n        RawProduct[] memory _rawProducts,\r\n        string memory _material,\r\n        string memory _status,\r\n        string memory _tempStatus,\r\n        string memory _longStatus,\r\n        string memory _radioactivityLevel,\r\n        string memory _dimensions\r\n    ) public returns (bool) {\r\n        address _manufacturer = msg.sender;\r\n        require(\r\n            _manufacturer != address(0),\r\n            \"Product::add: Manufacturer cannot be null\"\r\n        );\r\n        _items[_id] = Item({\r\n            id: _id,\r\n            title: _title,\r\n            manufacturer: _manufacturer,\r\n            currentOwner: _manufacturer,\r\n            lastOwner: address(0),\r\n            launchDate: block.timestamp,\r\n            material: _material,\r\n            status: _status,\r\n            tempStatus: _tempStatus,\r\n            longStatus: _longStatus,\r\n            radioactivityLevel: _radioactivityLevel,\r\n            dimensions: _dimensions\r\n        });\r\n        for (uint i = 0; i < _rawProducts.length; i++) {\r\n            _itemRawProducts[_id].push(_rawProducts[i]);\r\n        }\r\n        _itemIds.push(_id);\r\n        return true;\r\n    }\r\n\r\n    function get(\r\n        uint256 _id\r\n    )\r\n        public\r\n        view\r\n        returns (\r\n            Item memory item,\r\n            Transaction[] memory transactions,\r\n            RawProduct[] memory rawProducts\r\n        )\r\n    {\r\n        item = _items[_id];\r\n        transactions = new Transaction[](_itemTransactions[_id].length);\r\n        for (uint256 i = 0; i < _itemTransactions[_id].length; i++) {\r\n            transactions[i] = _transactions[_itemTransactions[_id][i]];\r\n        }\r\n        rawProducts = _itemRawProducts[_id];\r\n    }\r\n\r\n    function transfer(address _to, uint256 _id) public returns (bool) {\r\n        require(\r\n            _items[_id].currentOwner != address(0),\r\n            \"Product::transfer: Product does not exist\"\r\n        );\r\n        require(\r\n            _items[_id].currentOwner != _to,\r\n            \"Product::transfer: Cannot transfer to self\"\r\n        );\r\n        require(\r\n            _to != address(0),\r\n            \"Product::transfer: Cannot transfer to null address\"\r\n        );\r\n\r\n        _items[_id].lastOwner = _items[_id].currentOwner;\r\n        _items[_id].currentOwner = _to;\r\n\r\n        _transactions[_nextTransactionId] = Transaction({\r\n            txId: _nextTransactionId,\r\n            from: _items[_id].lastOwner,\r\n            to: _items[_id].currentOwner,\r\n            date: block.timestamp\r\n        });\r\n        _itemTransactions[_id].push(_nextTransactionId);\r\n        _nextTransactionId++;\r\n        return true;\r\n    }\r\n\r\n    function updateStatusTemporary(\r\n        uint256 _id,\r\n        string memory newStatus\r\n    ) public itemExists(_id) returns (bool) {\r\n        require(\r\n            _items[_id].currentOwner == msg.sender,\r\n            \"Only the current owner can update the status\"\r\n        );\r\n        require(bytes(newStatus).length > 0, \"Status cannot be empty\");\r\n\r\n        _items[_id].tempStatus = newStatus;\r\n        return true;\r\n    }\r\n\r\n    function updateStatusLongterm(\r\n        uint256 _id,\r\n        string memory neStatus\r\n    ) public itemExists(_id) returns (bool) {\r\n        require(\r\n            _items[_id].currentOwner == msg.sender,\r\n            \"Only the current owner can update the status\"\r\n        );\r\n        require(bytes(neStatus).length > 0, \"Status cannot be empty\");\r\n\r\n        _items[_id].longStatus = neStatus;\r\n        return true;\r\n    }\r\n\r\n    function getTransactionsByProductId(\r\n        uint256 _productId\r\n    ) public view returns (Transaction[] memory) {\r\n        require(\r\n            _items[_productId].manufacturer != address(0),\r\n            \"Product does not exist\"\r\n        );\r\n\r\n        uint256 transactionCount = _itemTransactions[_productId].length;\r\n        Transaction[] memory transactions = new Transaction[](transactionCount);\r\n\r\n        for (uint256 i = 0; i < transactionCount; i++) {\r\n            transactions[i] = _transactions[_itemTransactions[_productId][i]];\r\n        }\r\n\r\n        return transactions;\r\n    }\r\n\r\n    function getItemIds() public view returns (uint256[] memory) {\r\n        return _itemIds;\r\n    }\r\n\r\n    function getProductsCount() public view returns (uint256) {\r\n        return _itemIds.length;\r\n    }\r\n\r\n    function getTransactionsCount() public view returns (uint256) {\r\n        return _nextTransactionId;\r\n    }\r\n}\r\n",
  "sourcePath": "C:\\Users\\dpaks\\Downloads\\Pre-final Delivery\\supply-chain\\src\\Smart-Contract\\Contracts\\Product.sol",
  "compiler": {
    "name": "solc",
    "version": "0.8.0+commit.c7dfd78e.Emscripten.clang"
  },
  "schemaVersion": "3.4.16",
  "updatedAt": "2024-11-04T01:01:19.263Z",
  "networkType": "ethereum",
  "devdoc": {
    "kind": "dev",
    "methods": {},
    "version": 1
  },
  "userdoc": {
    "kind": "user",
    "methods": {},
    "version": 1
  }
}