{
  "contractName": "Stakeholder",
  "abi": [
    {
      "inputs": [],
      "stateMutability": "nonpayable",
      "type": "constructor"
    },
    {
      "inputs": [],
      "name": "admin",
      "outputs": [
        {
          "internalType": "address",
          "name": "",
          "type": "address"
        }
      ],
      "stateMutability": "view",
      "type": "function",
      "constant": true
    },
    {
      "inputs": [
        {
          "internalType": "address",
          "name": "_account",
          "type": "address"
        }
      ],
      "name": "isAdmin",
      "outputs": [
        {
          "internalType": "bool",
          "name": "",
          "type": "bool"
        }
      ],
      "stateMutability": "view",
      "type": "function",
      "constant": true
    },
    {
      "inputs": [
        {
          "internalType": "string",
          "name": "_name",
          "type": "string"
        },
        {
          "internalType": "string",
          "name": "_registration",
          "type": "string"
        },
        {
          "internalType": "string",
          "name": "_contact",
          "type": "string"
        },
        {
          "internalType": "string",
          "name": "_email",
          "type": "string"
        },
        {
          "internalType": "string",
          "name": "_certification",
          "type": "string"
        },
        {
          "internalType": "string",
          "name": "_location",
          "type": "string"
        },
        {
          "internalType": "string",
          "name": "_role",
          "type": "string"
        },
        {
          "internalType": "string",
          "name": "_managerName",
          "type": "string"
        },
        {
          "internalType": "string",
          "name": "_managerContact",
          "type": "string"
        }
      ],
      "name": "register",
      "outputs": [
        {
          "internalType": "bool",
          "name": "",
          "type": "bool"
        }
      ],
      "stateMutability": "nonpayable",
      "type": "function"
    },
    {
      "inputs": [
        {
          "internalType": "address",
          "name": "_id",
          "type": "address"
        }
      ],
      "name": "get",
      "outputs": [
        {
          "components": [
            {
              "internalType": "address",
              "name": "id",
              "type": "address"
            },
            {
              "internalType": "string",
              "name": "name",
              "type": "string"
            },
            {
              "internalType": "string",
              "name": "registration",
              "type": "string"
            },
            {
              "internalType": "string",
              "name": "contact",
              "type": "string"
            },
            {
              "internalType": "string",
              "name": "email",
              "type": "string"
            },
            {
              "internalType": "string",
              "name": "certification",
              "type": "string"
            },
            {
              "internalType": "string",
              "name": "location",
              "type": "string"
            },
            {
              "internalType": "string",
              "name": "role",
              "type": "string"
            },
            {
              "internalType": "string",
              "name": "managerName",
              "type": "string"
            },
            {
              "internalType": "string",
              "name": "managerContact",
              "type": "string"
            },
            {
              "internalType": "bool",
              "name": "isVerified",
              "type": "bool"
            },
            {
              "internalType": "bool",
              "name": "isRejected",
              "type": "bool"
            }
          ],
          "internalType": "struct Stakeholder.stakeholder",
          "name": "",
          "type": "tuple"
        }
      ],
      "stateMutability": "view",
      "type": "function",
      "constant": true
    },
    {
      "inputs": [
        {
          "internalType": "address",
          "name": "_operator",
          "type": "address"
        },
        {
          "internalType": "bool",
          "name": "_approved",
          "type": "bool"
        }
      ],
      "name": "setApprovalForAll",
      "outputs": [
        {
          "internalType": "bool",
          "name": "",
          "type": "bool"
        }
      ],
      "stateMutability": "nonpayable",
      "type": "function"
    },
    {
      "inputs": [
        {
          "internalType": "address",
          "name": "_owner",
          "type": "address"
        },
        {
          "internalType": "address",
          "name": "_operator",
          "type": "address"
        }
      ],
      "name": "isApprovedForAll",
      "outputs": [
        {
          "internalType": "bool",
          "name": "",
          "type": "bool"
        }
      ],
      "stateMutability": "view",
      "type": "function",
      "constant": true
    },
    {
      "inputs": [
        {
          "internalType": "address",
          "name": "_from",
          "type": "address"
        },
        {
          "internalType": "address",
          "name": "_to",
          "type": "address"
        },
        {
          "internalType": "uint256",
          "name": "_productId",
          "type": "uint256"
        }
      ],
      "name": "transferFrom",
      "outputs": [
        {
          "internalType": "bool",
          "name": "",
          "type": "bool"
        }
      ],
      "stateMutability": "nonpayable",
      "type": "function"
    },
    {
      "inputs": [
        {
          "internalType": "address",
          "name": "_id",
          "type": "address"
        }
      ],
      "name": "verify",
      "outputs": [
        {
          "internalType": "bool",
          "name": "",
          "type": "bool"
        }
      ],
      "stateMutability": "nonpayable",
      "type": "function"
    },
    {
      "inputs": [
        {
          "internalType": "address",
          "name": "_id",
          "type": "address"
        }
      ],
      "name": "reject",
      "outputs": [
        {
          "internalType": "bool",
          "name": "",
          "type": "bool"
        }
      ],
      "stateMutability": "nonpayable",
      "type": "function"
    },
    {
      "inputs": [
        {
          "internalType": "address",
          "name": "_id",
          "type": "address"
        }
      ],
      "name": "isVerified",
      "outputs": [
        {
          "internalType": "bool",
          "name": "",
          "type": "bool"
        }
      ],
      "stateMutability": "view",
      "type": "function",
      "constant": true
    },
    {
      "inputs": [
        {
          "internalType": "address",
          "name": "_id",
          "type": "address"
        }
      ],
      "name": "getRole",
      "outputs": [
        {
          "internalType": "string",
          "name": "",
          "type": "string"
        }
      ],
      "stateMutability": "view",
      "type": "function",
      "constant": true
    },
    {
      "inputs": [],
      "name": "getAddresses",
      "outputs": [
        {
          "internalType": "address[]",
          "name": "",
          "type": "address[]"
        }
      ],
      "stateMutability": "view",
      "type": "function",
      "constant": true
    }
  ],
  "bytecode": "0x608060405234801561001057600080fd5b5033806000806101000a81548173ffffffffffffffffffffffffffffffffffffffff021916908373ffffffffffffffffffffffffffffffffffffffff1602179055505061242f806100626000396000f3fe608060405234801561001057600080fd5b50600436106100b45760003560e01c8063a39fac1211610071578063a39fac12146101d9578063ab0da5a9146101f7578063b9209e3314610227578063c2bc2efc14610257578063e985e9c514610287578063f851a440146102b7576100b4565b806323b872dd146100b957806324d7806c146100e957806344276733146101195780635d6396bf1461014957806363a9c3d714610179578063a22cb465146101a9575b600080fd5b6100d360048036038101906100ce91906118cd565b6102d5565b6040516100e09190612083565b60405180910390f35b61010360048036038101906100fe9190611868565b610588565b6040516101109190612083565b60405180910390f35b610133600480360381019061012e9190611868565b6105e1565b604051610140919061209e565b60405180910390f35b610163600480360381019061015e9190611958565b6106b5565b6040516101709190612083565b60405180910390f35b610193600480360381019061018e9190611868565b610a3b565b6040516101a09190612083565b60405180910390f35b6101c360048036038101906101be919061191c565b610af9565b6040516101d09190612083565b60405180910390f35b6101e1610c78565b6040516101ee9190612061565b60405180910390f35b610211600480360381019061020c9190611868565b610d06565b60405161021e9190612083565b60405180910390f35b610241600480360381019061023c9190611868565b610e1f565b60405161024e9190612083565b60405180910390f35b610271600480360381019061026c9190611868565b610e78565b60405161027e91906121a0565b60405180910390f35b6102a1600480360381019061029c9190611891565b6115eb565b6040516102ae9190612083565b60405180910390f35b6102bf61167f565b6040516102cc9190612046565b60405180910390f35b600083826000600260008473ffffffffffffffffffffffffffffffffffffffff1673ffffffffffffffffffffffffffffffffffffffff168152602001908152602001600020600083815260200190815260200160002060009054906101000a900460ff169050600061034784336115eb565b8061037d57508373ffffffffffffffffffffffffffffffffffffffff163373ffffffffffffffffffffffffffffffffffffffff16145b90508180156103895750805b6103c8576040517f08c379a00000000000000000000000000000000000000000000000000000000081526004016103bf90612160565b60405180910390fd5b8673ffffffffffffffffffffffffffffffffffffffff168873ffffffffffffffffffffffffffffffffffffffff161415610437576040517f08c379a000000000000000000000000000000000000000000000000000000000815260040161042e90612120565b60405180910390fd5b600073ffffffffffffffffffffffffffffffffffffffff168773ffffffffffffffffffffffffffffffffffffffff1614156104a7576040517f08c379a000000000000000000000000000000000000000000000000000000000815260040161049e906120e0565b60405180910390fd5b6000600260008a73ffffffffffffffffffffffffffffffffffffffff1673ffffffffffffffffffffffffffffffffffffffff168152602001908152602001600020600088815260200190815260200160002060006101000a81548160ff0219169083151502179055506001600260008973ffffffffffffffffffffffffffffffffffffffff1673ffffffffffffffffffffffffffffffffffffffff168152602001908152602001600020600088815260200190815260200160002060006101000a81548160ff02191690831515021790555060019450505050509392505050565b60008060009054906101000a900473ffffffffffffffffffffffffffffffffffffffff1673ffffffffffffffffffffffffffffffffffffffff168273ffffffffffffffffffffffffffffffffffffffff16149050919050565b6060600160008373ffffffffffffffffffffffffffffffffffffffff1673ffffffffffffffffffffffffffffffffffffffff168152602001908152602001600020600701805461063090612313565b80601f016020809104026020016040519081016040528092919081815260200182805461065c90612313565b80156106a95780601f1061067e576101008083540402835291602001916106a9565b820191906000526020600020905b81548152906001019060200180831161068c57829003601f168201915b50505050509050919050565b60008073ffffffffffffffffffffffffffffffffffffffff16600160003373ffffffffffffffffffffffffffffffffffffffff1673ffffffffffffffffffffffffffffffffffffffff16815260200190815260200160002060000160009054906101000a900473ffffffffffffffffffffffffffffffffffffffff1673ffffffffffffffffffffffffffffffffffffffff1614610787576040517f08c379a000000000000000000000000000000000000000000000000000000000815260040161077e90612140565b60405180910390fd5b6040518061018001604052803373ffffffffffffffffffffffffffffffffffffffff1681526020018b81526020018a815260200189815260200188815260200187815260200186815260200185815260200184815260200183815260200160001515815260200160001515815250600160003373ffffffffffffffffffffffffffffffffffffffff1673ffffffffffffffffffffffffffffffffffffffff16815260200190815260200160002060008201518160000160006101000a81548173ffffffffffffffffffffffffffffffffffffffff021916908373ffffffffffffffffffffffffffffffffffffffff16021790555060208201518160010190805190602001906108979291906116a3565b5060408201518160020190805190602001906108b49291906116a3565b5060608201518160030190805190602001906108d19291906116a3565b5060808201518160040190805190602001906108ee9291906116a3565b5060a082015181600501908051906020019061090b9291906116a3565b5060c08201518160060190805190602001906109289291906116a3565b5060e08201518160070190805190602001906109459291906116a3565b506101008201518160080190805190602001906109639291906116a3565b506101208201518160090190805190602001906109819291906116a3565b5061014082015181600a0160006101000a81548160ff02191690831515021790555061016082015181600a0160016101000a81548160ff0219169083151502179055509050506004339080600181540180825580915050600190039060005260206000200160009091909190916101000a81548173ffffffffffffffffffffffffffffffffffffffff021916908373ffffffffffffffffffffffffffffffffffffffff160217905550600190509998505050505050505050565b60008060009054906101000a900473ffffffffffffffffffffffffffffffffffffffff1673ffffffffffffffffffffffffffffffffffffffff163373ffffffffffffffffffffffffffffffffffffffff1614610a9657600080fd5b60018060008473ffffffffffffffffffffffffffffffffffffffff1673ffffffffffffffffffffffffffffffffffffffff168152602001908152602001600020600a0160006101000a81548160ff02191690831515021790555060019050919050565b60008273ffffffffffffffffffffffffffffffffffffffff163373ffffffffffffffffffffffffffffffffffffffff161415610b6a576040517f08c379a0000000000000000000000000000000000000000000000000000000008152600401610b61906120c0565b60405180910390fd5b600073ffffffffffffffffffffffffffffffffffffffff168373ffffffffffffffffffffffffffffffffffffffff161415610bda576040517f08c379a0000000000000000000000000000000000000000000000000000000008152600401610bd190612180565b60405180910390fd5b81600360003373ffffffffffffffffffffffffffffffffffffffff1673ffffffffffffffffffffffffffffffffffffffff16815260200190815260200160002060008573ffffffffffffffffffffffffffffffffffffffff1673ffffffffffffffffffffffffffffffffffffffff16815260200190815260200160002060006101000a81548160ff0219169083151502179055506001905092915050565b60606004805480602002602001604051908101604052809291908181526020018280548015610cfc57602002820191906000526020600020905b8160009054906101000a900473ffffffffffffffffffffffffffffffffffffffff1673ffffffffffffffffffffffffffffffffffffffff1681526020019060010190808311610cb2575b5050505050905090565b60008060009054906101000a900473ffffffffffffffffffffffffffffffffffffffff1673ffffffffffffffffffffffffffffffffffffffff163373ffffffffffffffffffffffffffffffffffffffff1614610d6157600080fd5b6000600160008473ffffffffffffffffffffffffffffffffffffffff1673ffffffffffffffffffffffffffffffffffffffff168152602001908152602001600020600a0160006101000a81548160ff02191690831515021790555060018060008473ffffffffffffffffffffffffffffffffffffffff1673ffffffffffffffffffffffffffffffffffffffff168152602001908152602001600020600a0160016101000a81548160ff02191690831515021790555060019050919050565b6000600160008373ffffffffffffffffffffffffffffffffffffffff1673ffffffffffffffffffffffffffffffffffffffff168152602001908152602001600020600a0160009054906101000a900460ff169050919050565b610e80611729565b81600160003373ffffffffffffffffffffffffffffffffffffffff1673ffffffffffffffffffffffffffffffffffffffff16815260200190815260200160002060000160009054906101000a900473ffffffffffffffffffffffffffffffffffffffff1673ffffffffffffffffffffffffffffffffffffffff168173ffffffffffffffffffffffffffffffffffffffff161480610fab5750600073ffffffffffffffffffffffffffffffffffffffff16600160003373ffffffffffffffffffffffffffffffffffffffff1673ffffffffffffffffffffffffffffffffffffffff16815260200190815260200160002060000160009054906101000a900473ffffffffffffffffffffffffffffffffffffffff1673ffffffffffffffffffffffffffffffffffffffff16145b610fea576040517f08c379a0000000000000000000000000000000000000000000000000000000008152600401610fe190612100565b60405180910390fd5b600160008473ffffffffffffffffffffffffffffffffffffffff1673ffffffffffffffffffffffffffffffffffffffff168152602001908152602001600020604051806101800160405290816000820160009054906101000a900473ffffffffffffffffffffffffffffffffffffffff1673ffffffffffffffffffffffffffffffffffffffff1673ffffffffffffffffffffffffffffffffffffffff16815260200160018201805461109b90612313565b80601f01602080910402602001604051908101604052809291908181526020018280546110c790612313565b80156111145780601f106110e957610100808354040283529160200191611114565b820191906000526020600020905b8154815290600101906020018083116110f757829003601f168201915b5050505050815260200160028201805461112d90612313565b80601f016020809104026020016040519081016040528092919081815260200182805461115990612313565b80156111a65780601f1061117b576101008083540402835291602001916111a6565b820191906000526020600020905b81548152906001019060200180831161118957829003601f168201915b505050505081526020016003820180546111bf90612313565b80601f01602080910402602001604051908101604052809291908181526020018280546111eb90612313565b80156112385780601f1061120d57610100808354040283529160200191611238565b820191906000526020600020905b81548152906001019060200180831161121b57829003601f168201915b5050505050815260200160048201805461125190612313565b80601f016020809104026020016040519081016040528092919081815260200182805461127d90612313565b80156112ca5780601f1061129f576101008083540402835291602001916112ca565b820191906000526020600020905b8154815290600101906020018083116112ad57829003601f168201915b505050505081526020016005820180546112e390612313565b80601f016020809104026020016040519081016040528092919081815260200182805461130f90612313565b801561135c5780601f106113315761010080835404028352916020019161135c565b820191906000526020600020905b81548152906001019060200180831161133f57829003601f168201915b5050505050815260200160068201805461137590612313565b80601f01602080910402602001604051908101604052809291908181526020018280546113a190612313565b80156113ee5780601f106113c3576101008083540402835291602001916113ee565b820191906000526020600020905b8154815290600101906020018083116113d157829003601f168201915b5050505050815260200160078201805461140790612313565b80601f016020809104026020016040519081016040528092919081815260200182805461143390612313565b80156114805780601f1061145557610100808354040283529160200191611480565b820191906000526020600020905b81548152906001019060200180831161146357829003601f168201915b5050505050815260200160088201805461149990612313565b80601f01602080910402602001604051908101604052809291908181526020018280546114c590612313565b80156115125780601f106114e757610100808354040283529160200191611512565b820191906000526020600020905b8154815290600101906020018083116114f557829003601f168201915b5050505050815260200160098201805461152b90612313565b80601f016020809104026020016040519081016040528092919081815260200182805461155790612313565b80156115a45780601f10611579576101008083540402835291602001916115a4565b820191906000526020600020905b81548152906001019060200180831161158757829003601f168201915b50505050508152602001600a820160009054906101000a900460ff16151515158152602001600a820160019054906101000a900460ff161515151581525050915050919050565b6000600360008473ffffffffffffffffffffffffffffffffffffffff1673ffffffffffffffffffffffffffffffffffffffff16815260200190815260200160002060008373ffffffffffffffffffffffffffffffffffffffff1673ffffffffffffffffffffffffffffffffffffffff16815260200190815260200160002060009054906101000a900460ff16905092915050565b60008054906101000a900473ffffffffffffffffffffffffffffffffffffffff1681565b8280546116af90612313565b90600052602060002090601f0160209004810192826116d15760008555611718565b82601f106116ea57805160ff1916838001178555611718565b82800160010185558215611718579182015b828111156117175782518255916020019190600101906116fc565b5b50905061172591906117a4565b5090565b604051806101800160405280600073ffffffffffffffffffffffffffffffffffffffff1681526020016060815260200160608152602001606081526020016060815260200160608152602001606081526020016060815260200160608152602001606081526020016000151581526020016000151581525090565b5b808211156117bd5760008160009055506001016117a5565b5090565b60006117d46117cf846121f3565b6121c2565b9050828152602081018484840111156117ec57600080fd5b6117f78482856122d1565b509392505050565b60008135905061180e816123b4565b92915050565b600081359050611823816123cb565b92915050565b600082601f83011261183a57600080fd5b813561184a8482602086016117c1565b91505092915050565b600081359050611862816123e2565b92915050565b60006020828403121561187a57600080fd5b6000611888848285016117ff565b91505092915050565b600080604083850312156118a457600080fd5b60006118b2858286016117ff565b92505060206118c3858286016117ff565b9150509250929050565b6000806000606084860312156118e257600080fd5b60006118f0868287016117ff565b9350506020611901868287016117ff565b925050604061191286828701611853565b9150509250925092565b6000806040838503121561192f57600080fd5b600061193d858286016117ff565b925050602061194e85828601611814565b9150509250929050565b60008060008060008060008060006101208a8c03121561197757600080fd5b60008a013567ffffffffffffffff81111561199157600080fd5b61199d8c828d01611829565b99505060208a013567ffffffffffffffff8111156119ba57600080fd5b6119c68c828d01611829565b98505060408a013567ffffffffffffffff8111156119e357600080fd5b6119ef8c828d01611829565b97505060608a013567ffffffffffffffff811115611a0c57600080fd5b611a188c828d01611829565b96505060808a013567ffffffffffffffff811115611a3557600080fd5b611a418c828d01611829565b95505060a08a013567ffffffffffffffff811115611a5e57600080fd5b611a6a8c828d01611829565b94505060c08a013567ffffffffffffffff811115611a8757600080fd5b611a938c828d01611829565b93505060e08a013567ffffffffffffffff811115611ab057600080fd5b611abc8c828d01611829565b9250506101008a013567ffffffffffffffff811115611ada57600080fd5b611ae68c828d01611829565b9150509295985092959850929598565b6000611b028383611b0e565b60208301905092915050565b611b1781612289565b82525050565b611b2681612289565b82525050565b6000611b3782612233565b611b418185612256565b9350611b4c83612223565b8060005b83811015611b7d578151611b648882611af6565b9750611b6f83612249565b925050600181019050611b50565b5085935050505092915050565b611b938161229b565b82525050565b611ba28161229b565b82525050565b6000611bb38261223e565b611bbd8185612267565b9350611bcd8185602086016122e0565b611bd6816123a3565b840191505092915050565b6000611bec8261223e565b611bf68185612278565b9350611c068185602086016122e0565b611c0f816123a3565b840191505092915050565b6000611c27603c83612278565b91507f5374616b65686f6c6465723a3a736574417070726f76616c466f72416c6c3a2060008301527f43616e6e6f742073657420617070726f76616c20666f722073656c66000000006020830152604082019050919050565b6000611c8d603a83612278565b91507f5374616b65686f6c6465723a3a7472616e7366657246726f6d3a2043616e6e6f60008301527f74207472616e7366657220746f206e756c6c20616464726573730000000000006020830152604082019050919050565b6000611cf3602983612278565b91507f4f6e6c79207374616b65686f6c6465722063616e20616363657373207468697360008301527f2066756e6374696f6e00000000000000000000000000000000000000000000006020830152604082019050919050565b6000611d59603283612278565b91507f5374616b65686f6c6465723a3a7472616e7366657246726f6d3a2043616e6e6f60008301527f74207472616e7366657220746f2073656c6600000000000000000000000000006020830152604082019050919050565b6000611dbf603583612278565b91507f5374616b65686f6c6465723a3a72656769737465723a205374616b65686f6c6460008301527f657220616c7265616479207265676973746572656400000000000000000000006020830152604082019050919050565b6000611e25602f83612278565b91507f4f6e6c79206f776e6572206f7220617070726f7665642063616e20616363657360008301527f7320746869732066756e6374696f6e00000000000000000000000000000000006020830152604082019050919050565b6000611e8b604483612278565b91507f5374616b65686f6c6465723a3a736574417070726f76616c466f72416c6c3a2060008301527f43616e6e6f742073657420617070726f76616c20666f72206e756c6c2061646460208301527f72657373000000000000000000000000000000000000000000000000000000006040830152606082019050919050565b600061018083016000830151611f236000860182611b0e565b5060208301518482036020860152611f3b8282611ba8565b91505060408301518482036040860152611f558282611ba8565b91505060608301518482036060860152611f6f8282611ba8565b91505060808301518482036080860152611f898282611ba8565b91505060a083015184820360a0860152611fa38282611ba8565b91505060c083015184820360c0860152611fbd8282611ba8565b91505060e083015184820360e0860152611fd78282611ba8565b915050610100830151848203610100860152611ff38282611ba8565b91505061012083015184820361012086015261200f8282611ba8565b915050610140830151612026610140860182611b8a565b5061016083015161203b610160860182611b8a565b508091505092915050565b600060208201905061205b6000830184611b1d565b92915050565b6000602082019050818103600083015261207b8184611b2c565b905092915050565b60006020820190506120986000830184611b99565b92915050565b600060208201905081810360008301526120b88184611be1565b905092915050565b600060208201905081810360008301526120d981611c1a565b9050919050565b600060208201905081810360008301526120f981611c80565b9050919050565b6000602082019050818103600083015261211981611ce6565b9050919050565b6000602082019050818103600083015261213981611d4c565b9050919050565b6000602082019050818103600083015261215981611db2565b9050919050565b6000602082019050818103600083015261217981611e18565b9050919050565b6000602082019050818103600083015261219981611e7e565b9050919050565b600060208201905081810360008301526121ba8184611f0a565b905092915050565b6000604051905081810181811067ffffffffffffffff821117156121e9576121e8612374565b5b8060405250919050565b600067ffffffffffffffff82111561220e5761220d612374565b5b601f19601f8301169050602081019050919050565b6000819050602082019050919050565b600081519050919050565b600081519050919050565b6000602082019050919050565b600082825260208201905092915050565b600082825260208201905092915050565b600082825260208201905092915050565b6000612294826122a7565b9050919050565b60008115159050919050565b600073ffffffffffffffffffffffffffffffffffffffff82169050919050565b6000819050919050565b82818337600083830152505050565b60005b838110156122fe5780820151818401526020810190506122e3565b8381111561230d576000848401525b50505050565b6000600282049050600182168061232b57607f821691505b6020821081141561233f5761233e612345565b5b50919050565b7f4e487b7100000000000000000000000000000000000000000000000000000000600052602260045260246000fd5b7f4e487b7100000000000000000000000000000000000000000000000000000000600052604160045260246000fd5b6000601f19601f8301169050919050565b6123bd81612289565b81146123c857600080fd5b50565b6123d48161229b565b81146123df57600080fd5b50565b6123eb816122c7565b81146123f657600080fd5b5056fea2646970667358221220f66966b3f32e03239455334a4359b196c4d74caa30adba6beed52341f7f0f43764736f6c63430008000033",
  "immutableReferences": {},
  "source": "// SPDX-License-Identifier: MIT\r\npragma solidity ^0.8.0;\r\nimport './Admin.sol';\r\ncontract Stakeholder is Admin{\r\n  \r\n  struct stakeholder{\r\n    address id;\r\n    string name;\r\n    string registration;\r\n    string contact;\r\n    string email;\r\n    string certification;\r\n    string location;\r\n    string role;\r\n    string managerName;\r\n    string managerContact;\r\n    bool isVerified; \r\n    bool isRejected;\r\n  }\r\n\r\n  mapping(address => stakeholder) _stakeholders;\r\n  mapping(address => mapping(uint256 => bool)) _stakeholderProductOwnership;\r\n  mapping(address => mapping(address => bool)) _operatorApprovals;\r\n  address[] _stakeholderAddresses;\r\n\r\n  constructor() Admin(msg.sender){}\r\n\r\n  function register(\r\n    string memory _name,\r\n    string memory _registration,\r\n    string memory _contact,\r\n    string memory _email,\r\n    string memory _certification,\r\n    string memory _location,\r\n    string memory _role,\r\n    string memory _managerName, \r\n    string memory _managerContact \r\n  ) public virtual returns (bool) {\r\n    require (_stakeholders[msg.sender].id ==  address(0), \"Stakeholder::register: Stakeholder already registered\");\r\n    _stakeholders[msg.sender] = stakeholder(msg.sender, _name, _registration, _contact, _email, _certification, _location, _role, _managerName, _managerContact, false, false);\r\n    _stakeholderAddresses.push(msg.sender);\r\n    return true;\r\n  }\r\n  \r\n  function get(address _id) public view onlyStakeholder(_id) returns(stakeholder memory){\r\n    return _stakeholders[_id];\r\n  }\r\n\r\n  function setApprovalForAll(\r\n    address _operator,\r\n    bool _approved\r\n  ) public virtual returns (bool){\r\n    require (msg.sender != _operator, \"Stakeholder::setApprovalForAll: Cannot set approval for self\");\r\n    require (_operator != address(0), \"Stakeholder::setApprovalForAll: Cannot set approval for null address\");\r\n    _operatorApprovals[msg.sender][_operator] = _approved;\r\n    return true;\r\n  }\r\n\r\n  function isApprovedForAll(\r\n    address _owner,\r\n    address _operator\r\n  ) public view virtual returns (bool){\r\n    return _operatorApprovals[_owner][_operator];\r\n  }\r\n\r\n  function transferFrom(\r\n    address _from,\r\n    address _to,\r\n    uint256 _productId\r\n  ) public virtual onlyOwnerOrApproved(_from, _productId) returns (bool){\r\n    require (_from != _to, \"Stakeholder::transferFrom: Cannot transfer to self\");\r\n    require (_to != address(0), \"Stakeholder::transferFrom: Cannot transfer to null address\");\r\n    _stakeholderProductOwnership[_from][_productId] = false;\r\n    _stakeholderProductOwnership[_to][_productId] = true;\r\n    return true;\r\n  }\r\n\r\n  function verify(address _id) public onlyAdmin returns (bool){\r\n    _stakeholders[_id].isVerified = true;\r\n    return true;\r\n  }\r\n\r\n    function reject(address _id) public onlyAdmin returns (bool) {\r\n        _stakeholders[_id].isVerified = false;\r\n        _stakeholders[_id].isRejected = true; \r\n        return true;\r\n    }\r\n\r\n  function isVerified(address _id) public view returns (bool){\r\n    return _stakeholders[_id].isVerified;\r\n  }\r\n\r\n  function getRole(address _id) public view returns (string memory){\r\n    return _stakeholders[_id].role;\r\n  }\r\n\r\n  function getAddresses() public view returns (address[] memory){\r\n    return _stakeholderAddresses;\r\n  }\r\n\r\n  modifier onlyStakeholder(address _id){\r\n    require(\r\n      _id == _stakeholders[msg.sender].id || _stakeholders[msg.sender].id == address(0), \r\n      \"Only stakeholder can access this function\"\r\n    );\r\n    _;\r\n  }\r\n\r\n  modifier onlyOwnerOrApproved(address _from, uint256 _productId){\r\n    bool _from_the_product_owner = _stakeholderProductOwnership[_from][_productId];\r\n    bool _approved_or_product_owner = isApprovedForAll(_from, msg.sender) || msg.sender == _from;\r\n\r\n    require( _from_the_product_owner && _approved_or_product_owner, \"Only owner or approved can access this function\");\r\n    _;\r\n  }\r\n\r\n}",
  "sourcePath": "C:\\Users\\dpaks\\Downloads\\Pre-final Delivery\\supply-chain\\src\\Smart-Contract\\Contracts\\Stakeholder.sol",
  "compiler": {
    "name": "solc",
    "version": "0.8.0+commit.c7dfd78e.Emscripten.clang"
  },
  "schemaVersion": "3.4.16",
  "updatedAt": "2024-11-04T01:01:19.272Z",
  "networkType": "ethereum",
  "devdoc": {
    "kind": "dev",
    "methods": {},
    "version": 1
  },
  "userdoc": {
    "kind": "user",
    "methods": {},
    "version": 1
  }
}